{
  "address": "0x4f5937eB3A913Ef8719040D02d3f5C4557C21D21",
  "abi": [
    {
      "anonymous": false,
      "inputs": [
        {
          "indexed": true,
          "internalType": "address",
          "name": "user",
          "type": "address"
        },
        {
          "indexed": false,
          "internalType": "uint256",
          "name": "amount",
          "type": "uint256"
        },
        {
          "indexed": false,
          "internalType": "uint256",
          "name": "timestamp",
          "type": "uint256"
        }
      ],
      "name": "DepositFIL",
      "type": "event"
    },
    {
      "anonymous": false,
      "inputs": [
        {
          "indexed": false,
          "internalType": "uint8",
          "name": "version",
          "type": "uint8"
        }
      ],
      "name": "Initialized",
      "type": "event"
    },
    {
      "anonymous": false,
      "inputs": [
        {
          "indexed": true,
          "internalType": "address",
          "name": "minter",
          "type": "address"
        },
        {
          "indexed": false,
          "internalType": "address[]",
          "name": "userList",
          "type": "address[]"
        },
        {
          "indexed": false,
          "internalType": "uint256[]",
          "name": "amountList",
          "type": "uint256[]"
        },
        {
          "indexed": false,
          "internalType": "uint256",
          "name": "timestamp",
          "type": "uint256"
        }
      ],
      "name": "MintSFT",
      "type": "event"
    },
    {
      "anonymous": false,
      "inputs": [
        {
          "indexed": true,
          "internalType": "address",
          "name": "previousOwner",
          "type": "address"
        },
        {
          "indexed": true,
          "internalType": "address",
          "name": "newOwner",
          "type": "address"
        }
      ],
      "name": "OwnershipTransferStarted",
      "type": "event"
    },
    {
      "anonymous": false,
      "inputs": [
        {
          "indexed": true,
          "internalType": "address",
          "name": "previousOwner",
          "type": "address"
        },
        {
          "indexed": true,
          "internalType": "address",
          "name": "newOwner",
          "type": "address"
        }
      ],
      "name": "OwnershipTransferred",
      "type": "event"
    },
    {
      "anonymous": false,
      "inputs": [
        {
          "indexed": false,
          "internalType": "address",
          "name": "oldMinter",
          "type": "address"
        },
        {
          "indexed": false,
          "internalType": "address",
          "name": "newMinter",
          "type": "address"
        }
      ],
      "name": "SetMinter",
      "type": "event"
    },
    {
      "anonymous": false,
      "inputs": [
        {
          "indexed": false,
          "internalType": "address",
          "name": "oldTaker",
          "type": "address"
        },
        {
          "indexed": false,
          "internalType": "address",
          "name": "newTaker",
          "type": "address"
        }
      ],
      "name": "SetTaker",
      "type": "event"
    },
    {
      "anonymous": false,
      "inputs": [
        {
          "indexed": true,
          "internalType": "address",
          "name": "taker",
          "type": "address"
        },
        {
          "indexed": false,
          "internalType": "address",
          "name": "recipient",
          "type": "address"
        },
        {
          "indexed": false,
          "internalType": "uint256",
          "name": "amount",
          "type": "uint256"
        },
        {
          "indexed": false,
          "internalType": "uint256",
          "name": "timestamp",
          "type": "uint256"
        }
      ],
      "name": "TakeTokens",
      "type": "event"
    },
    {
      "inputs": [],
      "name": "acceptOwnership",
      "outputs": [],
      "stateMutability": "nonpayable",
      "type": "function"
    },
    {
      "inputs": [
        {
          "internalType": "uint256",
          "name": "amount",
          "type": "uint256"
        }
      ],
      "name": "deposit",
      "outputs": [],
      "stateMutability": "nonpayable",
      "type": "function"
    },
    {
      "inputs": [],
      "name": "filToken",
      "outputs": [
        {
          "internalType": "contract IERC20",
          "name": "",
          "type": "address"
        }
      ],
      "stateMutability": "view",
      "type": "function"
    },
    {
      "inputs": [
        {
          "internalType": "contract IERC20",
          "name": "_filToken",
          "type": "address"
        },
        {
          "internalType": "contract ISFTToken",
          "name": "_sftToken",
          "type": "address"
        },
        {
          "internalType": "address",
          "name": "_minter",
          "type": "address"
        },
        {
          "internalType": "address",
          "name": "_taker",
          "type": "address"
        }
      ],
      "name": "initialize",
      "outputs": [],
      "stateMutability": "nonpayable",
      "type": "function"
    },
    {
      "inputs": [
        {
          "internalType": "address[]",
          "name": "userList",
          "type": "address[]"
        },
        {
          "internalType": "uint256[]",
          "name": "amountList",
          "type": "uint256[]"
        }
      ],
      "name": "mintSFT",
      "outputs": [],
      "stateMutability": "nonpayable",
      "type": "function"
    },
    {
      "inputs": [],
      "name": "minter",
      "outputs": [
        {
          "internalType": "address",
          "name": "",
          "type": "address"
        }
      ],
      "stateMutability": "view",
      "type": "function"
    },
    {
      "inputs": [],
      "name": "owner",
      "outputs": [
        {
          "internalType": "address",
          "name": "",
          "type": "address"
        }
      ],
      "stateMutability": "view",
      "type": "function"
    },
    {
      "inputs": [],
      "name": "pendingOwner",
      "outputs": [
        {
          "internalType": "address",
          "name": "",
          "type": "address"
        }
      ],
      "stateMutability": "view",
      "type": "function"
    },
    {
      "inputs": [],
      "name": "remainTokens",
      "outputs": [
        {
          "internalType": "uint256",
          "name": "",
          "type": "uint256"
        }
      ],
      "stateMutability": "view",
      "type": "function"
    },
    {
      "inputs": [],
      "name": "renounceOwnership",
      "outputs": [],
      "stateMutability": "nonpayable",
      "type": "function"
    },
    {
      "inputs": [
        {
          "internalType": "address",
          "name": "newMinter",
          "type": "address"
        }
      ],
      "name": "setMinter",
      "outputs": [],
      "stateMutability": "nonpayable",
      "type": "function"
    },
    {
      "inputs": [
        {
          "internalType": "address",
          "name": "newTaker",
          "type": "address"
        }
      ],
      "name": "setTaker",
      "outputs": [],
      "stateMutability": "nonpayable",
      "type": "function"
    },
    {
      "inputs": [],
      "name": "sftToken",
      "outputs": [
        {
          "internalType": "contract ISFTToken",
          "name": "",
          "type": "address"
        }
      ],
      "stateMutability": "view",
      "type": "function"
    },
    {
      "inputs": [
        {
          "internalType": "address",
          "name": "recipient",
          "type": "address"
        }
      ],
      "name": "takeTokens",
      "outputs": [],
      "stateMutability": "nonpayable",
      "type": "function"
    },
    {
      "inputs": [],
      "name": "taker",
      "outputs": [
        {
          "internalType": "address",
          "name": "",
          "type": "address"
        }
      ],
      "stateMutability": "view",
      "type": "function"
    },
    {
      "inputs": [
        {
          "internalType": "address",
          "name": "",
          "type": "address"
        }
      ],
      "name": "totalFILDeposited",
      "outputs": [
        {
          "internalType": "uint256",
          "name": "",
          "type": "uint256"
        }
      ],
      "stateMutability": "view",
      "type": "function"
    },
    {
      "inputs": [
        {
          "internalType": "address",
          "name": "",
          "type": "address"
        }
      ],
      "name": "totalSFTMinted",
      "outputs": [
        {
          "internalType": "uint256",
          "name": "",
          "type": "uint256"
        }
      ],
      "stateMutability": "view",
      "type": "function"
    },
    {
      "inputs": [
        {
          "internalType": "address",
          "name": "newOwner",
          "type": "address"
        }
      ],
      "name": "transferOwnership",
      "outputs": [],
      "stateMutability": "nonpayable",
      "type": "function"
    }
  ],
  "transactionHash": "0x344c2355ed2a54dbb4d388d1691ee81eefd2b1209ea1bc11b7c84c92c031178c",
  "args": [],
  "numDeployments": 1,
  "solcInputHash": "bfce09bdf208f8540cf7c06767162491",
  "bytecode": "0x608060405234801561001057600080fd5b50611447806100206000396000f3fe608060405234801561001057600080fd5b50600436106101165760003560e01c8063b6b55f25116100a2578063e30c397811610071578063e30c397814610237578063e3cef7a114610248578063f2fde38b1461025b578063f8c8765e1461026e578063fca3b5aa1461028157600080fd5b8063b6b55f25146101e8578063ce0befcf146101fb578063d02b529714610204578063d5fc44bf1461022457600080fd5b8063715018a6116100e9578063715018a6146101a1578063782b3602146101a957806379ba5097146101bc5780638da5cb5b146101c45780638e18d648146101d557600080fd5b8063075461721461011b57806311fca4b71461014b5780631df69117146101605780634e584d961461018e575b600080fd5b60995461012e906001600160a01b031681565b6040516001600160a01b0390911681526020015b60405180910390f35b61015e6101593660046110d3565b610294565b005b61018061016e3660046110d3565b609c6020526000908152604090205481565b604051908152602001610142565b61015e61019c366004611143565b6102a8565b61015e6105de565b609a5461012e906001600160a01b031681565b61015e6105f2565b6033546001600160a01b031661012e565b60975461012e906001600160a01b031681565b61015e6101f63660046111af565b610669565b610180609b5481565b6101806102123660046110d3565b609d6020526000908152604090205481565b60985461012e906001600160a01b031681565b6065546001600160a01b031661012e565b61015e6102563660046110d3565b6107bb565b61015e6102693660046110d3565b61093e565b61015e61027c3660046111c8565b6109af565b61015e61028f3660046110d3565b610bba565b61029c610bcb565b6102a581610c25565b50565b6099546001600160a01b031633146102fe5760405162461bcd60e51b81526020600482015260146024820152731bdb9b1e481b5a5b9d195c8818d85b8818d85b1b60621b60448201526064015b60405180910390fd5b821580159061030c57508281145b61034a5760405162461bcd60e51b815260206004820152600f60248201526e696e636f7272637420706172616d7360881b60448201526064016102f5565b60005b8381101561058e5782828281811061036757610367611224565b90506020020135609d600087878581811061038457610384611224565b905060200201602081019061039991906110d3565b6001600160a01b03166001600160a01b0316815260200190815260200160002060008282546103c89190611250565b90915550609c905060008686848181106103e4576103e4611224565b90506020020160208101906103f991906110d3565b6001600160a01b03166001600160a01b0316815260200190815260200160002054609d600087878581811061043057610430611224565b905060200201602081019061044591906110d3565b6001600160a01b03166001600160a01b031681526020019081526020016000205411156104ca5760405162461bcd60e51b815260206004820152602d60248201527f6d696e7465642053465420616d6f756e7420657863656564204465706f73697460448201526c19590811925308185b5bdd5b9d609a1b60648201526084016102f5565b6098546001600160a01b03166340c10f198686848181106104ed576104ed611224565b905060200201602081019061050291906110d3565b85858581811061051457610514611224565b6040516001600160e01b031960e087901b1681526001600160a01b0390941660048501526020029190910135602483015250604401600060405180830381600087803b15801561056357600080fd5b505af1158015610577573d6000803e3d6000fd5b50505050808061058690611268565b91505061034d565b50336001600160a01b03167f43b875a79ff5bcefc28b18ac60e17d768cb06ba5f747f8814b884389a55560b885858585426040516105d0959493929190611283565b60405180910390a250505050565b6105e6610bcb565b6105f06000610c8e565b565b60655433906001600160a01b031681146106605760405162461bcd60e51b815260206004820152602960248201527f4f776e61626c6532537465703a2063616c6c6572206973206e6f7420746865206044820152683732bb9037bbb732b960b91b60648201526084016102f5565b6102a581610c8e565b6097546040516370a0823160e01b815233600482015282916001600160a01b0316906370a082319060240160206040518083038186803b1580156106ac57600080fd5b505afa1580156106c0573d6000803e3d6000fd5b505050506040513d601f19601f820116820180604052508101906106e49190611310565b101561072b5760405162461bcd60e51b81526020600482015260166024820152750ccd2d840c4c2d8c2dcc6ca40dcdee840cadcdeeaced60531b60448201526064016102f5565b609754610743906001600160a01b0316333084610ca7565b80609b60008282546107559190611250565b9091555050336000908152609c602052604081208054839290610779908490611250565b90915550506040805182815242602082015233917f75f8eb7c6717170cf4c0d8b709b3f9c99a8587d584032e2dbf17a0106bc02524910160405180910390a250565b609a546001600160a01b0316331461080b5760405162461bcd60e51b81526020600482015260136024820152721bdb9b1e481d185ad95c8818d85b8818d85b1b606a1b60448201526064016102f5565b609b546097546040516370a0823160e01b81523060048201526001600160a01b03909116906370a082319060240160206040518083038186803b15801561085157600080fd5b505afa158015610865573d6000803e3d6000fd5b505050506040513d601f19601f820116820180604052508101906108899190611310565b10156108cb5760405162461bcd60e51b8152602060048201526011602482015270696e636f72726563742062616c616e636560781b60448201526064016102f5565b609b546097546108e8916001600160a01b03909116908390610d18565b609b54604080516001600160a01b03841681526020810192909252429082015233907e7f9af35eb92ae9537d48e3700de690ed2226ac62ab283027afe7ffc2a6ac0a9060600160405180910390a2506000609b55565b610946610bcb565b606580546001600160a01b0383166001600160a01b031990911681179091556109776033546001600160a01b031690565b6001600160a01b03167f38d16b8cac22d99fc7c124b9cd0de2d3fa1faef420bfe791d8c362d765e2270060405160405180910390a350565b600054610100900460ff16158080156109cf5750600054600160ff909116105b806109e95750303b1580156109e9575060005460ff166001145b610a4c5760405162461bcd60e51b815260206004820152602e60248201527f496e697469616c697a61626c653a20636f6e747261637420697320616c72656160448201526d191e481a5b9a5d1a585b1a5e995960921b60648201526084016102f5565b6000805460ff191660011790558015610a6f576000805461ff0019166101001790555b6001600160a01b038516610ac55760405162461bcd60e51b815260206004820181905260248201527f66696c20746f6b656e20616464726573732063616e6e6f74206265207a65726f60448201526064016102f5565b6001600160a01b038416610b1b5760405162461bcd60e51b815260206004820181905260248201527f53465420746f6b656e20616464726573732063616e6e6f74206265207a65726f60448201526064016102f5565b610b23610d4d565b610b2b610d74565b609780546001600160a01b038088166001600160a01b0319928316179092556098805492871692909116919091179055610b6483610da4565b610b6d82610c25565b8015610bb3576000805461ff0019169055604051600181527f7f26b83ff96e1f2b6a682f133852f6798a09c465da95921460cefb38474024989060200160405180910390a15b5050505050565b610bc2610bcb565b6102a581610da4565b6033546001600160a01b031633146105f05760405162461bcd60e51b815260206004820181905260248201527f4f776e61626c653a2063616c6c6572206973206e6f7420746865206f776e657260448201526064016102f5565b609a54604080516001600160a01b03928316815291831660208301527ffc278d7e8bb416cc071a28e3f8c0af8c5d522849ee147b75894e568cd0866fe6910160405180910390a1609a80546001600160a01b0319166001600160a01b0392909216919091179055565b606580546001600160a01b03191690556102a581610e0d565b6040516001600160a01b0380851660248301528316604482015260648101829052610d129085906323b872dd60e01b906084015b60408051601f198184030181529190526020810180516001600160e01b03166001600160e01b031990931692909217909152610e5f565b50505050565b6040516001600160a01b038316602482015260448101829052610d4890849063a9059cbb60e01b90606401610cdb565b505050565b600054610100900460ff166105f05760405162461bcd60e51b81526004016102f590611329565b600054610100900460ff16610d9b5760405162461bcd60e51b81526004016102f590611329565b6105f033610c8e565b609954604080516001600160a01b03928316815291831660208301527fe490d3138e32f1f66ef3971a3c73c7f7704ba0c1d1000f1e2c3df6fc0376610b910160405180910390a1609980546001600160a01b0319166001600160a01b0392909216919091179055565b603380546001600160a01b038381166001600160a01b0319831681179093556040519116919082907f8be0079c531659141344cd1fd0a4f28419497f9722a3daafe3b4186f6b6457e090600090a35050565b6000610eb4826040518060400160405280602081526020017f5361666545524332303a206c6f772d6c6576656c2063616c6c206661696c6564815250856001600160a01b0316610f319092919063ffffffff16565b805190915015610d485780806020019051810190610ed29190611374565b610d485760405162461bcd60e51b815260206004820152602a60248201527f5361666545524332303a204552433230206f7065726174696f6e20646964206e6044820152691bdd081cdd58d8d9595960b21b60648201526084016102f5565b6060610f408484600085610f48565b949350505050565b606082471015610fa95760405162461bcd60e51b815260206004820152602660248201527f416464726573733a20696e73756666696369656e742062616c616e636520666f6044820152651c8818d85b1b60d21b60648201526084016102f5565b600080866001600160a01b03168587604051610fc591906113c2565b60006040518083038185875af1925050503d8060008114611002576040519150601f19603f3d011682016040523d82523d6000602084013e611007565b606091505b509150915061101887838387611023565b979650505050505050565b6060831561108f578251611088576001600160a01b0385163b6110885760405162461bcd60e51b815260206004820152601d60248201527f416464726573733a2063616c6c20746f206e6f6e2d636f6e747261637400000060448201526064016102f5565b5081610f40565b610f4083838151156110a45781518083602001fd5b8060405162461bcd60e51b81526004016102f591906113de565b6001600160a01b03811681146102a557600080fd5b6000602082840312156110e557600080fd5b81356110f0816110be565b9392505050565b60008083601f84011261110957600080fd5b50813567ffffffffffffffff81111561112157600080fd5b6020830191508360208260051b850101111561113c57600080fd5b9250929050565b6000806000806040858703121561115957600080fd5b843567ffffffffffffffff8082111561117157600080fd5b61117d888389016110f7565b9096509450602087013591508082111561119657600080fd5b506111a3878288016110f7565b95989497509550505050565b6000602082840312156111c157600080fd5b5035919050565b600080600080608085870312156111de57600080fd5b84356111e9816110be565b935060208501356111f9816110be565b92506040850135611209816110be565b91506060850135611219816110be565b939692955090935050565b634e487b7160e01b600052603260045260246000fd5b634e487b7160e01b600052601160045260246000fd5b600082198211156112635761126361123a565b500190565b600060001982141561127c5761127c61123a565b5060010190565b6060808252810185905260008660808301825b888110156112c65782356112a9816110be565b6001600160a01b0316825260209283019290910190600101611296565b5083810360208501528581526001600160fb1b038611156112e657600080fd5b8560051b915081876020830137600091016020019081526040929092019290925295945050505050565b60006020828403121561132257600080fd5b5051919050565b6020808252602b908201527f496e697469616c697a61626c653a20636f6e7472616374206973206e6f74206960408201526a6e697469616c697a696e6760a81b606082015260800190565b60006020828403121561138657600080fd5b815180151581146110f057600080fd5b60005b838110156113b1578181015183820152602001611399565b83811115610d125750506000910152565b600082516113d4818460208701611396565b9190910192915050565b60208152600082518060208401526113fd816040850160208701611396565b601f01601f1916919091016040019291505056fea2646970667358221220b5d1146b182431606b2021f87382d5fb21801eea7865a4674e0209e3b122561364736f6c63430008090033",
  "devdoc": {
    "kind": "dev",
    "methods": {
      "acceptOwnership()": {
        "details": "The new owner accepts the ownership transfer."
      },
      "owner()": {
        "details": "Returns the address of the current owner."
      },
      "pendingOwner()": {
        "details": "Returns the address of the pending owner."
      },
      "renounceOwnership()": {
        "details": "Leaves the contract without owner. It will not be possible to call `onlyOwner` functions anymore. Can only be called by the current owner. NOTE: Renouncing ownership will leave the contract without an owner, thereby removing any functionality that is only available to the owner."
      },
      "transferOwnership(address)": {
        "details": "Starts the ownership transfer of the contract to a new account. Replaces the pending transfer if there is one. Can only be called by the current owner."
      }
    },
    "version": 1
  },
  "userdoc": {
    "kind": "user",
    "methods": {},
    "version": 1
  },
  "storageLayout": {
    "storage": [
      {
        "astId": 244,
        "contract": "contracts/Deposit.sol:Deposit",
        "label": "_initialized",
        "offset": 0,
        "slot": "0",
        "type": "t_uint8"
      },
      {
        "astId": 247,
        "contract": "contracts/Deposit.sol:Deposit",
        "label": "_initializing",
        "offset": 1,
        "slot": "0",
        "type": "t_bool"
      },
      {
        "astId": 731,
        "contract": "contracts/Deposit.sol:Deposit",
        "label": "__gap",
        "offset": 0,
        "slot": "1",
        "type": "t_array(t_uint256)50_storage"
      },
      {
        "astId": 116,
        "contract": "contracts/Deposit.sol:Deposit",
        "label": "_owner",
        "offset": 0,
        "slot": "51",
        "type": "t_address"
      },
      {
        "astId": 236,
        "contract": "contracts/Deposit.sol:Deposit",
        "label": "__gap",
        "offset": 0,
        "slot": "52",
        "type": "t_array(t_uint256)49_storage"
      },
      {
        "astId": 25,
        "contract": "contracts/Deposit.sol:Deposit",
        "label": "_pendingOwner",
        "offset": 0,
        "slot": "101",
        "type": "t_address"
      },
      {
        "astId": 104,
        "contract": "contracts/Deposit.sol:Deposit",
        "label": "__gap",
        "offset": 0,
        "slot": "102",
        "type": "t_array(t_uint256)49_storage"
      },
      {
        "astId": 2958,
        "contract": "contracts/Deposit.sol:Deposit",
        "label": "filToken",
        "offset": 0,
        "slot": "151",
        "type": "t_contract(IERC20)1593"
      },
      {
        "astId": 2961,
        "contract": "contracts/Deposit.sol:Deposit",
        "label": "sftToken",
        "offset": 0,
        "slot": "152",
        "type": "t_contract(ISFTToken)3577"
      },
      {
        "astId": 2963,
        "contract": "contracts/Deposit.sol:Deposit",
        "label": "minter",
        "offset": 0,
        "slot": "153",
        "type": "t_address"
      },
      {
        "astId": 2965,
        "contract": "contracts/Deposit.sol:Deposit",
        "label": "taker",
        "offset": 0,
        "slot": "154",
        "type": "t_address"
      },
      {
        "astId": 2967,
        "contract": "contracts/Deposit.sol:Deposit",
        "label": "remainTokens",
        "offset": 0,
        "slot": "155",
        "type": "t_uint256"
      },
      {
        "astId": 2971,
        "contract": "contracts/Deposit.sol:Deposit",
        "label": "totalFILDeposited",
        "offset": 0,
        "slot": "156",
        "type": "t_mapping(t_address,t_uint256)"
      },
      {
        "astId": 2975,
        "contract": "contracts/Deposit.sol:Deposit",
        "label": "totalSFTMinted",
        "offset": 0,
        "slot": "157",
        "type": "t_mapping(t_address,t_uint256)"
      }
    ],
    "types": {
      "t_address": {
        "encoding": "inplace",
        "label": "address",
        "numberOfBytes": "20"
      },
      "t_array(t_uint256)49_storage": {
        "base": "t_uint256",
        "encoding": "inplace",
        "label": "uint256[49]",
        "numberOfBytes": "1568"
      },
      "t_array(t_uint256)50_storage": {
        "base": "t_uint256",
        "encoding": "inplace",
        "label": "uint256[50]",
        "numberOfBytes": "1600"
      },
      "t_bool": {
        "encoding": "inplace",
        "label": "bool",
        "numberOfBytes": "1"
      },
      "t_contract(IERC20)1593": {
        "encoding": "inplace",
        "label": "contract IERC20",
        "numberOfBytes": "20"
      },
      "t_contract(ISFTToken)3577": {
        "encoding": "inplace",
        "label": "contract ISFTToken",
        "numberOfBytes": "20"
      },
      "t_mapping(t_address,t_uint256)": {
        "encoding": "mapping",
        "key": "t_address",
        "label": "mapping(address => uint256)",
        "numberOfBytes": "32",
        "value": "t_uint256"
      },
      "t_uint256": {
        "encoding": "inplace",
        "label": "uint256",
        "numberOfBytes": "32"
      },
      "t_uint8": {
        "encoding": "inplace",
        "label": "uint8",
        "numberOfBytes": "1"
      }
    }
  }
}