{
  "address": "0xDAbcbdd3676c2BeE6160673F90b807E5EcD2E369",
  "abi": [
    {
      "anonymous": false,
      "inputs": [
        {
          "indexed": true,
          "internalType": "address",
          "name": "user",
          "type": "address"
        },
        {
          "indexed": false,
          "internalType": "uint256",
          "name": "amount",
          "type": "uint256"
        },
        {
          "indexed": false,
          "internalType": "uint256",
          "name": "timestamp",
          "type": "uint256"
        }
      ],
      "name": "DepositFIL",
      "type": "event"
    },
    {
      "anonymous": false,
      "inputs": [
        {
          "indexed": false,
          "internalType": "uint8",
          "name": "version",
          "type": "uint8"
        }
      ],
      "name": "Initialized",
      "type": "event"
    },
    {
      "anonymous": false,
      "inputs": [
        {
          "indexed": true,
          "internalType": "address",
          "name": "minter",
          "type": "address"
        },
        {
          "indexed": false,
          "internalType": "address[]",
          "name": "userList",
          "type": "address[]"
        },
        {
          "indexed": false,
          "internalType": "uint256[]",
          "name": "amountList",
          "type": "uint256[]"
        },
        {
          "indexed": false,
          "internalType": "uint256",
          "name": "timestamp",
          "type": "uint256"
        }
      ],
      "name": "MintSFT",
      "type": "event"
    },
    {
      "anonymous": false,
      "inputs": [
        {
          "indexed": true,
          "internalType": "address",
          "name": "previousOwner",
          "type": "address"
        },
        {
          "indexed": true,
          "internalType": "address",
          "name": "newOwner",
          "type": "address"
        }
      ],
      "name": "OwnershipTransferStarted",
      "type": "event"
    },
    {
      "anonymous": false,
      "inputs": [
        {
          "indexed": true,
          "internalType": "address",
          "name": "previousOwner",
          "type": "address"
        },
        {
          "indexed": true,
          "internalType": "address",
          "name": "newOwner",
          "type": "address"
        }
      ],
      "name": "OwnershipTransferred",
      "type": "event"
    },
    {
      "anonymous": false,
      "inputs": [
        {
          "indexed": false,
          "internalType": "address",
          "name": "oldMinter",
          "type": "address"
        },
        {
          "indexed": false,
          "internalType": "address",
          "name": "newMinter",
          "type": "address"
        }
      ],
      "name": "SetMinter",
      "type": "event"
    },
    {
      "anonymous": false,
      "inputs": [
        {
          "indexed": false,
          "internalType": "address",
          "name": "oldTaker",
          "type": "address"
        },
        {
          "indexed": false,
          "internalType": "address",
          "name": "newTaker",
          "type": "address"
        }
      ],
      "name": "SetTaker",
      "type": "event"
    },
    {
      "anonymous": false,
      "inputs": [
        {
          "indexed": true,
          "internalType": "address",
          "name": "taker",
          "type": "address"
        },
        {
          "indexed": false,
          "internalType": "address",
          "name": "recipient",
          "type": "address"
        },
        {
          "indexed": false,
          "internalType": "uint256",
          "name": "amount",
          "type": "uint256"
        },
        {
          "indexed": false,
          "internalType": "uint256",
          "name": "timestamp",
          "type": "uint256"
        }
      ],
      "name": "TakeTokens",
      "type": "event"
    },
    {
      "inputs": [],
      "name": "acceptOwnership",
      "outputs": [],
      "stateMutability": "nonpayable",
      "type": "function"
    },
    {
      "inputs": [
        {
          "internalType": "uint256",
          "name": "amount",
          "type": "uint256"
        }
      ],
      "name": "deposit",
      "outputs": [],
      "stateMutability": "nonpayable",
      "type": "function"
    },
    {
      "inputs": [],
      "name": "filToken",
      "outputs": [
        {
          "internalType": "contract IERC20",
          "name": "",
          "type": "address"
        }
      ],
      "stateMutability": "view",
      "type": "function"
    },
    {
      "inputs": [
        {
          "internalType": "contract IERC20",
          "name": "_filToken",
          "type": "address"
        },
        {
          "internalType": "contract ISFTToken",
          "name": "_sftToken",
          "type": "address"
        },
        {
          "internalType": "address",
          "name": "_minter",
          "type": "address"
        },
        {
          "internalType": "address",
          "name": "_taker",
          "type": "address"
        }
      ],
      "name": "initialize",
      "outputs": [],
      "stateMutability": "nonpayable",
      "type": "function"
    },
    {
      "inputs": [
        {
          "internalType": "address[]",
          "name": "userList",
          "type": "address[]"
        },
        {
          "internalType": "uint256[]",
          "name": "amountList",
          "type": "uint256[]"
        }
      ],
      "name": "mintSFT",
      "outputs": [],
      "stateMutability": "nonpayable",
      "type": "function"
    },
    {
      "inputs": [],
      "name": "minter",
      "outputs": [
        {
          "internalType": "address",
          "name": "",
          "type": "address"
        }
      ],
      "stateMutability": "view",
      "type": "function"
    },
    {
      "inputs": [],
      "name": "owner",
      "outputs": [
        {
          "internalType": "address",
          "name": "",
          "type": "address"
        }
      ],
      "stateMutability": "view",
      "type": "function"
    },
    {
      "inputs": [],
      "name": "pendingOwner",
      "outputs": [
        {
          "internalType": "address",
          "name": "",
          "type": "address"
        }
      ],
      "stateMutability": "view",
      "type": "function"
    },
    {
      "inputs": [],
      "name": "remainTokens",
      "outputs": [
        {
          "internalType": "uint256",
          "name": "",
          "type": "uint256"
        }
      ],
      "stateMutability": "view",
      "type": "function"
    },
    {
      "inputs": [],
      "name": "renounceOwnership",
      "outputs": [],
      "stateMutability": "nonpayable",
      "type": "function"
    },
    {
      "inputs": [
        {
          "internalType": "address",
          "name": "newMinter",
          "type": "address"
        }
      ],
      "name": "setMinter",
      "outputs": [],
      "stateMutability": "nonpayable",
      "type": "function"
    },
    {
      "inputs": [
        {
          "internalType": "address",
          "name": "newTaker",
          "type": "address"
        }
      ],
      "name": "setTaker",
      "outputs": [],
      "stateMutability": "nonpayable",
      "type": "function"
    },
    {
      "inputs": [],
      "name": "sftToken",
      "outputs": [
        {
          "internalType": "contract ISFTToken",
          "name": "",
          "type": "address"
        }
      ],
      "stateMutability": "view",
      "type": "function"
    },
    {
      "inputs": [
        {
          "internalType": "address",
          "name": "recipient",
          "type": "address"
        }
      ],
      "name": "takeTokens",
      "outputs": [],
      "stateMutability": "nonpayable",
      "type": "function"
    },
    {
      "inputs": [],
      "name": "taker",
      "outputs": [
        {
          "internalType": "address",
          "name": "",
          "type": "address"
        }
      ],
      "stateMutability": "view",
      "type": "function"
    },
    {
      "inputs": [
        {
          "internalType": "address",
          "name": "newOwner",
          "type": "address"
        }
      ],
      "name": "transferOwnership",
      "outputs": [],
      "stateMutability": "nonpayable",
      "type": "function"
    }
  ],
  "transactionHash": "0x2b8b0d240d7248ed45e9563aa670b96457f18adf44c911da6ef3ae7793c6998d",
  "args": [],
  "numDeployments": 4,
  "solcInputHash": "589efb08278ae59fe79f764c456ad229",
  "bytecode": "0x608060405234801561001057600080fd5b50611258806100206000396000f3fe608060405234801561001057600080fd5b50600436106101005760003560e01c8063b6b55f2511610097578063e3cef7a111610066578063e3cef7a1146101f2578063f2fde38b14610205578063f8c8765e14610218578063fca3b5aa1461022b57600080fd5b8063b6b55f25146101a4578063ce0befcf146101b7578063d5fc44bf146101ce578063e30c3978146101e157600080fd5b8063782b3602116100d3578063782b36021461016557806379ba5097146101785780638da5cb5b146101805780638e18d6481461019157600080fd5b8063075461721461010557806311fca4b7146101355780634e584d961461014a578063715018a61461015d575b600080fd5b609954610118906001600160a01b031681565b6040516001600160a01b0390911681526020015b60405180910390f35b610148610143366004610ee4565b61023e565b005b610148610158366004610f54565b610252565b610148610413565b609a54610118906001600160a01b031681565b610148610427565b6033546001600160a01b0316610118565b609754610118906001600160a01b031681565b6101486101b2366004610fc0565b61049e565b6101c0609b5481565b60405190815260200161012c565b609854610118906001600160a01b031681565b6065546001600160a01b0316610118565b610148610200366004610ee4565b6105cc565b610148610213366004610ee4565b61074f565b610148610226366004610fd9565b6107c0565b610148610239366004610ee4565b6109cb565b6102466109dc565b61024f81610a36565b50565b6099546001600160a01b031633146102a85760405162461bcd60e51b81526020600482015260146024820152731bdb9b1e481b5a5b9d195c8818d85b8818d85b1b60621b60448201526064015b60405180910390fd5b82158015906102b657508281145b6102f45760405162461bcd60e51b815260206004820152600f60248201526e696e636f7272637420706172616d7360881b604482015260640161029f565b60005b838110156103c3576098546001600160a01b03166340c10f1986868481811061032257610322611035565b90506020020160208101906103379190610ee4565b85858581811061034957610349611035565b6040516001600160e01b031960e087901b1681526001600160a01b0390941660048501526020029190910135602483015250604401600060405180830381600087803b15801561039857600080fd5b505af11580156103ac573d6000803e3d6000fd5b5050505080806103bb90611061565b9150506102f7565b50336001600160a01b03167f43b875a79ff5bcefc28b18ac60e17d768cb06ba5f747f8814b884389a55560b8858585854260405161040595949392919061107c565b60405180910390a250505050565b61041b6109dc565b6104256000610a9f565b565b60655433906001600160a01b031681146104955760405162461bcd60e51b815260206004820152602960248201527f4f776e61626c6532537465703a2063616c6c6572206973206e6f7420746865206044820152683732bb9037bbb732b960b91b606482015260840161029f565b61024f81610a9f565b6097546040516370a0823160e01b815233600482015282916001600160a01b0316906370a082319060240160206040518083038186803b1580156104e157600080fd5b505afa1580156104f5573d6000803e3d6000fd5b505050506040513d601f19601f820116820180604052508101906105199190611109565b10156105605760405162461bcd60e51b81526020600482015260166024820152750ccd2d840c4c2d8c2dcc6ca40dcdee840cadcdeeaced60531b604482015260640161029f565b609754610578906001600160a01b0316333084610ab8565b80609b600082825461058a9190611122565b90915550506040805182815242602082015233917f75f8eb7c6717170cf4c0d8b709b3f9c99a8587d584032e2dbf17a0106bc02524910160405180910390a250565b609a546001600160a01b0316331461061c5760405162461bcd60e51b81526020600482015260136024820152721bdb9b1e481d185ad95c8818d85b8818d85b1b606a1b604482015260640161029f565b609b546097546040516370a0823160e01b81523060048201526001600160a01b03909116906370a082319060240160206040518083038186803b15801561066257600080fd5b505afa158015610676573d6000803e3d6000fd5b505050506040513d601f19601f8201168201806040525081019061069a9190611109565b10156106dc5760405162461bcd60e51b8152602060048201526011602482015270696e636f72726563742062616c616e636560781b604482015260640161029f565b609b546097546106f9916001600160a01b03909116908390610b29565b609b54604080516001600160a01b03841681526020810192909252429082015233907e7f9af35eb92ae9537d48e3700de690ed2226ac62ab283027afe7ffc2a6ac0a9060600160405180910390a2506000609b55565b6107576109dc565b606580546001600160a01b0383166001600160a01b031990911681179091556107886033546001600160a01b031690565b6001600160a01b03167f38d16b8cac22d99fc7c124b9cd0de2d3fa1faef420bfe791d8c362d765e2270060405160405180910390a350565b600054610100900460ff16158080156107e05750600054600160ff909116105b806107fa5750303b1580156107fa575060005460ff166001145b61085d5760405162461bcd60e51b815260206004820152602e60248201527f496e697469616c697a61626c653a20636f6e747261637420697320616c72656160448201526d191e481a5b9a5d1a585b1a5e995960921b606482015260840161029f565b6000805460ff191660011790558015610880576000805461ff0019166101001790555b6001600160a01b0385166108d65760405162461bcd60e51b815260206004820181905260248201527f66696c20746f6b656e20616464726573732063616e6e6f74206265207a65726f604482015260640161029f565b6001600160a01b03841661092c5760405162461bcd60e51b815260206004820181905260248201527f53465420746f6b656e20616464726573732063616e6e6f74206265207a65726f604482015260640161029f565b610934610b5e565b61093c610b85565b609780546001600160a01b038088166001600160a01b031992831617909255609880549287169290911691909117905561097583610bb5565b61097e82610a36565b80156109c4576000805461ff0019169055604051600181527f7f26b83ff96e1f2b6a682f133852f6798a09c465da95921460cefb38474024989060200160405180910390a15b5050505050565b6109d36109dc565b61024f81610bb5565b6033546001600160a01b031633146104255760405162461bcd60e51b815260206004820181905260248201527f4f776e61626c653a2063616c6c6572206973206e6f7420746865206f776e6572604482015260640161029f565b609a54604080516001600160a01b03928316815291831660208301527ffc278d7e8bb416cc071a28e3f8c0af8c5d522849ee147b75894e568cd0866fe6910160405180910390a1609a80546001600160a01b0319166001600160a01b0392909216919091179055565b606580546001600160a01b031916905561024f81610c1e565b6040516001600160a01b0380851660248301528316604482015260648101829052610b239085906323b872dd60e01b906084015b60408051601f198184030181529190526020810180516001600160e01b03166001600160e01b031990931692909217909152610c70565b50505050565b6040516001600160a01b038316602482015260448101829052610b5990849063a9059cbb60e01b90606401610aec565b505050565b600054610100900460ff166104255760405162461bcd60e51b815260040161029f9061113a565b600054610100900460ff16610bac5760405162461bcd60e51b815260040161029f9061113a565b61042533610a9f565b609954604080516001600160a01b03928316815291831660208301527fe490d3138e32f1f66ef3971a3c73c7f7704ba0c1d1000f1e2c3df6fc0376610b910160405180910390a1609980546001600160a01b0319166001600160a01b0392909216919091179055565b603380546001600160a01b038381166001600160a01b0319831681179093556040519116919082907f8be0079c531659141344cd1fd0a4f28419497f9722a3daafe3b4186f6b6457e090600090a35050565b6000610cc5826040518060400160405280602081526020017f5361666545524332303a206c6f772d6c6576656c2063616c6c206661696c6564815250856001600160a01b0316610d429092919063ffffffff16565b805190915015610b595780806020019051810190610ce39190611185565b610b595760405162461bcd60e51b815260206004820152602a60248201527f5361666545524332303a204552433230206f7065726174696f6e20646964206e6044820152691bdd081cdd58d8d9595960b21b606482015260840161029f565b6060610d518484600085610d59565b949350505050565b606082471015610dba5760405162461bcd60e51b815260206004820152602660248201527f416464726573733a20696e73756666696369656e742062616c616e636520666f6044820152651c8818d85b1b60d21b606482015260840161029f565b600080866001600160a01b03168587604051610dd691906111d3565b60006040518083038185875af1925050503d8060008114610e13576040519150601f19603f3d011682016040523d82523d6000602084013e610e18565b606091505b5091509150610e2987838387610e34565b979650505050505050565b60608315610ea0578251610e99576001600160a01b0385163b610e995760405162461bcd60e51b815260206004820152601d60248201527f416464726573733a2063616c6c20746f206e6f6e2d636f6e7472616374000000604482015260640161029f565b5081610d51565b610d518383815115610eb55781518083602001fd5b8060405162461bcd60e51b815260040161029f91906111ef565b6001600160a01b038116811461024f57600080fd5b600060208284031215610ef657600080fd5b8135610f0181610ecf565b9392505050565b60008083601f840112610f1a57600080fd5b50813567ffffffffffffffff811115610f3257600080fd5b6020830191508360208260051b8501011115610f4d57600080fd5b9250929050565b60008060008060408587031215610f6a57600080fd5b843567ffffffffffffffff80821115610f8257600080fd5b610f8e88838901610f08565b90965094506020870135915080821115610fa757600080fd5b50610fb487828801610f08565b95989497509550505050565b600060208284031215610fd257600080fd5b5035919050565b60008060008060808587031215610fef57600080fd5b8435610ffa81610ecf565b9350602085013561100a81610ecf565b9250604085013561101a81610ecf565b9150606085013561102a81610ecf565b939692955090935050565b634e487b7160e01b600052603260045260246000fd5b634e487b7160e01b600052601160045260246000fd5b60006000198214156110755761107561104b565b5060010190565b6060808252810185905260008660808301825b888110156110bf5782356110a281610ecf565b6001600160a01b031682526020928301929091019060010161108f565b5083810360208501528581526001600160fb1b038611156110df57600080fd5b8560051b915081876020830137600091016020019081526040929092019290925295945050505050565b60006020828403121561111b57600080fd5b5051919050565b600082198211156111355761113561104b565b500190565b6020808252602b908201527f496e697469616c697a61626c653a20636f6e7472616374206973206e6f74206960408201526a6e697469616c697a696e6760a81b606082015260800190565b60006020828403121561119757600080fd5b81518015158114610f0157600080fd5b60005b838110156111c25781810151838201526020016111aa565b83811115610b235750506000910152565b600082516111e58184602087016111a7565b9190910192915050565b602081526000825180602084015261120e8160408501602087016111a7565b601f01601f1916919091016040019291505056fea2646970667358221220669fdf45c87343ba61f784c2ddd5c86310f8085cbbf4675fcf82efffb969810764736f6c63430008090033",
  "devdoc": {
    "kind": "dev",
    "methods": {
      "acceptOwnership()": {
        "details": "The new owner accepts the ownership transfer."
      },
      "owner()": {
        "details": "Returns the address of the current owner."
      },
      "pendingOwner()": {
        "details": "Returns the address of the pending owner."
      },
      "renounceOwnership()": {
        "details": "Leaves the contract without owner. It will not be possible to call `onlyOwner` functions anymore. Can only be called by the current owner. NOTE: Renouncing ownership will leave the contract without an owner, thereby removing any functionality that is only available to the owner."
      },
      "transferOwnership(address)": {
        "details": "Starts the ownership transfer of the contract to a new account. Replaces the pending transfer if there is one. Can only be called by the current owner."
      }
    },
    "version": 1
  },
  "userdoc": {
    "kind": "user",
    "methods": {},
    "version": 1
  },
  "storageLayout": {
    "storage": [
      {
        "astId": 244,
        "contract": "contracts/Deposit.sol:Deposit",
        "label": "_initialized",
        "offset": 0,
        "slot": "0",
        "type": "t_uint8"
      },
      {
        "astId": 247,
        "contract": "contracts/Deposit.sol:Deposit",
        "label": "_initializing",
        "offset": 1,
        "slot": "0",
        "type": "t_bool"
      },
      {
        "astId": 731,
        "contract": "contracts/Deposit.sol:Deposit",
        "label": "__gap",
        "offset": 0,
        "slot": "1",
        "type": "t_array(t_uint256)50_storage"
      },
      {
        "astId": 116,
        "contract": "contracts/Deposit.sol:Deposit",
        "label": "_owner",
        "offset": 0,
        "slot": "51",
        "type": "t_address"
      },
      {
        "astId": 236,
        "contract": "contracts/Deposit.sol:Deposit",
        "label": "__gap",
        "offset": 0,
        "slot": "52",
        "type": "t_array(t_uint256)49_storage"
      },
      {
        "astId": 25,
        "contract": "contracts/Deposit.sol:Deposit",
        "label": "_pendingOwner",
        "offset": 0,
        "slot": "101",
        "type": "t_address"
      },
      {
        "astId": 104,
        "contract": "contracts/Deposit.sol:Deposit",
        "label": "__gap",
        "offset": 0,
        "slot": "102",
        "type": "t_array(t_uint256)49_storage"
      },
      {
        "astId": 1471,
        "contract": "contracts/Deposit.sol:Deposit",
        "label": "filToken",
        "offset": 0,
        "slot": "151",
        "type": "t_contract(IERC20)810"
      },
      {
        "astId": 1474,
        "contract": "contracts/Deposit.sol:Deposit",
        "label": "sftToken",
        "offset": 0,
        "slot": "152",
        "type": "t_contract(ISFTToken)1832"
      },
      {
        "astId": 1476,
        "contract": "contracts/Deposit.sol:Deposit",
        "label": "minter",
        "offset": 0,
        "slot": "153",
        "type": "t_address"
      },
      {
        "astId": 1478,
        "contract": "contracts/Deposit.sol:Deposit",
        "label": "taker",
        "offset": 0,
        "slot": "154",
        "type": "t_address"
      },
      {
        "astId": 1480,
        "contract": "contracts/Deposit.sol:Deposit",
        "label": "remainTokens",
        "offset": 0,
        "slot": "155",
        "type": "t_uint256"
      }
    ],
    "types": {
      "t_address": {
        "encoding": "inplace",
        "label": "address",
        "numberOfBytes": "20"
      },
      "t_array(t_uint256)49_storage": {
        "base": "t_uint256",
        "encoding": "inplace",
        "label": "uint256[49]",
        "numberOfBytes": "1568"
      },
      "t_array(t_uint256)50_storage": {
        "base": "t_uint256",
        "encoding": "inplace",
        "label": "uint256[50]",
        "numberOfBytes": "1600"
      },
      "t_bool": {
        "encoding": "inplace",
        "label": "bool",
        "numberOfBytes": "1"
      },
      "t_contract(IERC20)810": {
        "encoding": "inplace",
        "label": "contract IERC20",
        "numberOfBytes": "20"
      },
      "t_contract(ISFTToken)1832": {
        "encoding": "inplace",
        "label": "contract ISFTToken",
        "numberOfBytes": "20"
      },
      "t_uint256": {
        "encoding": "inplace",
        "label": "uint256",
        "numberOfBytes": "32"
      },
      "t_uint8": {
        "encoding": "inplace",
        "label": "uint8",
        "numberOfBytes": "1"
      }
    }
  }
}