{
  "address": "0xCc63977d14b69B72Fe06BAE369c1dBE444ffadeA",
  "abi": [
    {
      "anonymous": false,
      "inputs": [
        {
          "indexed": true,
          "internalType": "address",
          "name": "user",
          "type": "address"
        },
        {
          "indexed": false,
          "internalType": "uint256",
          "name": "amount",
          "type": "uint256"
        },
        {
          "indexed": false,
          "internalType": "uint256",
          "name": "timestamp",
          "type": "uint256"
        }
      ],
      "name": "DepositFIL",
      "type": "event"
    },
    {
      "anonymous": false,
      "inputs": [
        {
          "indexed": false,
          "internalType": "uint8",
          "name": "version",
          "type": "uint8"
        }
      ],
      "name": "Initialized",
      "type": "event"
    },
    {
      "anonymous": false,
      "inputs": [
        {
          "indexed": true,
          "internalType": "address",
          "name": "minter",
          "type": "address"
        },
        {
          "indexed": false,
          "internalType": "address[]",
          "name": "userList",
          "type": "address[]"
        },
        {
          "indexed": false,
          "internalType": "uint256[]",
          "name": "amountList",
          "type": "uint256[]"
        },
        {
          "indexed": false,
          "internalType": "uint256",
          "name": "timestamp",
          "type": "uint256"
        }
      ],
      "name": "MintSFT",
      "type": "event"
    },
    {
      "anonymous": false,
      "inputs": [
        {
          "indexed": true,
          "internalType": "address",
          "name": "previousOwner",
          "type": "address"
        },
        {
          "indexed": true,
          "internalType": "address",
          "name": "newOwner",
          "type": "address"
        }
      ],
      "name": "OwnershipTransferStarted",
      "type": "event"
    },
    {
      "anonymous": false,
      "inputs": [
        {
          "indexed": true,
          "internalType": "address",
          "name": "previousOwner",
          "type": "address"
        },
        {
          "indexed": true,
          "internalType": "address",
          "name": "newOwner",
          "type": "address"
        }
      ],
      "name": "OwnershipTransferred",
      "type": "event"
    },
    {
      "anonymous": false,
      "inputs": [
        {
          "indexed": false,
          "internalType": "address",
          "name": "oldMinter",
          "type": "address"
        },
        {
          "indexed": false,
          "internalType": "address",
          "name": "newMinter",
          "type": "address"
        }
      ],
      "name": "SetMinter",
      "type": "event"
    },
    {
      "anonymous": false,
      "inputs": [
        {
          "indexed": false,
          "internalType": "address",
          "name": "oldTaker",
          "type": "address"
        },
        {
          "indexed": false,
          "internalType": "address",
          "name": "newTaker",
          "type": "address"
        }
      ],
      "name": "SetTaker",
      "type": "event"
    },
    {
      "anonymous": false,
      "inputs": [
        {
          "indexed": true,
          "internalType": "address",
          "name": "taker",
          "type": "address"
        },
        {
          "indexed": false,
          "internalType": "uint256",
          "name": "amount",
          "type": "uint256"
        },
        {
          "indexed": false,
          "internalType": "uint256",
          "name": "timestamp",
          "type": "uint256"
        }
      ],
      "name": "TakeTokens",
      "type": "event"
    },
    {
      "inputs": [],
      "name": "acceptOwnership",
      "outputs": [],
      "stateMutability": "nonpayable",
      "type": "function"
    },
    {
      "inputs": [
        {
          "internalType": "uint256",
          "name": "amount",
          "type": "uint256"
        }
      ],
      "name": "deposit",
      "outputs": [],
      "stateMutability": "nonpayable",
      "type": "function"
    },
    {
      "inputs": [],
      "name": "filToken",
      "outputs": [
        {
          "internalType": "contract IERC20",
          "name": "",
          "type": "address"
        }
      ],
      "stateMutability": "view",
      "type": "function"
    },
    {
      "inputs": [
        {
          "internalType": "contract IERC20",
          "name": "_filToken",
          "type": "address"
        },
        {
          "internalType": "contract ISFTToken",
          "name": "_sftToken",
          "type": "address"
        },
        {
          "internalType": "address",
          "name": "_minter",
          "type": "address"
        },
        {
          "internalType": "address",
          "name": "_taker",
          "type": "address"
        }
      ],
      "name": "initialize",
      "outputs": [],
      "stateMutability": "nonpayable",
      "type": "function"
    },
    {
      "inputs": [
        {
          "internalType": "address[]",
          "name": "userList",
          "type": "address[]"
        },
        {
          "internalType": "uint256[]",
          "name": "amountList",
          "type": "uint256[]"
        }
      ],
      "name": "mintSFT",
      "outputs": [],
      "stateMutability": "nonpayable",
      "type": "function"
    },
    {
      "inputs": [],
      "name": "minter",
      "outputs": [
        {
          "internalType": "address",
          "name": "",
          "type": "address"
        }
      ],
      "stateMutability": "view",
      "type": "function"
    },
    {
      "inputs": [],
      "name": "owner",
      "outputs": [
        {
          "internalType": "address",
          "name": "",
          "type": "address"
        }
      ],
      "stateMutability": "view",
      "type": "function"
    },
    {
      "inputs": [],
      "name": "pendingOwner",
      "outputs": [
        {
          "internalType": "address",
          "name": "",
          "type": "address"
        }
      ],
      "stateMutability": "view",
      "type": "function"
    },
    {
      "inputs": [],
      "name": "remainTokens",
      "outputs": [
        {
          "internalType": "uint256",
          "name": "",
          "type": "uint256"
        }
      ],
      "stateMutability": "view",
      "type": "function"
    },
    {
      "inputs": [],
      "name": "renounceOwnership",
      "outputs": [],
      "stateMutability": "nonpayable",
      "type": "function"
    },
    {
      "inputs": [
        {
          "internalType": "address",
          "name": "newMinter",
          "type": "address"
        }
      ],
      "name": "setMinter",
      "outputs": [],
      "stateMutability": "nonpayable",
      "type": "function"
    },
    {
      "inputs": [
        {
          "internalType": "address",
          "name": "newTaker",
          "type": "address"
        }
      ],
      "name": "setTaker",
      "outputs": [],
      "stateMutability": "nonpayable",
      "type": "function"
    },
    {
      "inputs": [],
      "name": "sftToken",
      "outputs": [
        {
          "internalType": "contract ISFTToken",
          "name": "",
          "type": "address"
        }
      ],
      "stateMutability": "view",
      "type": "function"
    },
    {
      "inputs": [],
      "name": "takeTokens",
      "outputs": [],
      "stateMutability": "nonpayable",
      "type": "function"
    },
    {
      "inputs": [],
      "name": "taker",
      "outputs": [
        {
          "internalType": "address",
          "name": "",
          "type": "address"
        }
      ],
      "stateMutability": "view",
      "type": "function"
    },
    {
      "inputs": [
        {
          "internalType": "address",
          "name": "newOwner",
          "type": "address"
        }
      ],
      "name": "transferOwnership",
      "outputs": [],
      "stateMutability": "nonpayable",
      "type": "function"
    }
  ],
  "transactionHash": "0x16d1b16a14cc644579c22d4cc826ed5042b03ce6643ed093272a21c3ebb0c3b1",
  "args": [],
  "numDeployments": 3,
  "solcInputHash": "c2fd92f7cc10f70f4e1693fb4f16ae43",
  "bytecode": "0x608060405234801561001057600080fd5b5061123b806100206000396000f3fe608060405234801561001057600080fd5b50600436106101005760003560e01c80638e18d64811610097578063e30c397811610066578063e30c3978146101e9578063f2fde38b146101fa578063f8c8765e1461020d578063fca3b5aa1461022057600080fd5b80638e18d64814610199578063b6b55f25146101ac578063ce0befcf146101bf578063d5fc44bf146101d657600080fd5b8063715018a6116100d3578063715018a614610165578063782b36021461016d57806379ba5097146101805780638da5cb5b1461018857600080fd5b8063075461721461010557806311fca4b714610135578063318c00fc1461014a5780634e584d9614610152575b600080fd5b609954610118906001600160a01b031681565b6040516001600160a01b0390911681526020015b60405180910390f35b610148610143366004610ec7565b610233565b005b610148610247565b610148610160366004610f37565b6103bd565b610148610579565b609a54610118906001600160a01b031681565b61014861058d565b6033546001600160a01b0316610118565b609754610118906001600160a01b031681565b6101486101ba366004610fa3565b610604565b6101c8609b5481565b60405190815260200161012c565b609854610118906001600160a01b031681565b6065546001600160a01b0316610118565b610148610208366004610ec7565b610732565b61014861021b366004610fbc565b6107a3565b61014861022e366004610ec7565b6109ae565b61023b6109bf565b61024481610a19565b50565b609a546001600160a01b0316331461029c5760405162461bcd60e51b81526020600482015260136024820152721bdb9b1e481d185ad95c8818d85b8818d85b1b606a1b60448201526064015b60405180910390fd5b609b546097546040516370a0823160e01b81523060048201526001600160a01b03909116906370a082319060240160206040518083038186803b1580156102e257600080fd5b505afa1580156102f6573d6000803e3d6000fd5b505050506040513d601f19601f8201168201806040525081019061031a9190611018565b101561035c5760405162461bcd60e51b8152602060048201526011602482015270696e636f72726563742062616c616e636560781b6044820152606401610293565b609b54609754610379916001600160a01b03909116903390610a82565b609b546040805191825242602083015233917fcd131ad145c6cc91bbabb1e6049d655db4165260fc673a895aa25eafe5bf4da5910160405180910390a26000609b55565b6099546001600160a01b0316331461040e5760405162461bcd60e51b81526020600482015260146024820152731bdb9b1e481b5a5b9d195c8818d85b8818d85b1b60621b6044820152606401610293565b821580159061041c57508281145b61045a5760405162461bcd60e51b815260206004820152600f60248201526e696e636f7272637420706172616d7360881b6044820152606401610293565b60005b83811015610529576098546001600160a01b03166340c10f1986868481811061048857610488611031565b905060200201602081019061049d9190610ec7565b8585858181106104af576104af611031565b6040516001600160e01b031960e087901b1681526001600160a01b0390941660048501526020029190910135602483015250604401600060405180830381600087803b1580156104fe57600080fd5b505af1158015610512573d6000803e3d6000fd5b5050505080806105219061105d565b91505061045d565b50336001600160a01b03167f43b875a79ff5bcefc28b18ac60e17d768cb06ba5f747f8814b884389a55560b8858585854260405161056b959493929190611078565b60405180910390a250505050565b6105816109bf565b61058b6000610aea565b565b60655433906001600160a01b031681146105fb5760405162461bcd60e51b815260206004820152602960248201527f4f776e61626c6532537465703a2063616c6c6572206973206e6f7420746865206044820152683732bb9037bbb732b960b91b6064820152608401610293565b61024481610aea565b6097546040516370a0823160e01b815233600482015282916001600160a01b0316906370a082319060240160206040518083038186803b15801561064757600080fd5b505afa15801561065b573d6000803e3d6000fd5b505050506040513d601f19601f8201168201806040525081019061067f9190611018565b10156106c65760405162461bcd60e51b81526020600482015260166024820152750ccd2d840c4c2d8c2dcc6ca40dcdee840cadcdeeaced60531b6044820152606401610293565b6097546106de906001600160a01b0316333084610b03565b80609b60008282546106f09190611105565b90915550506040805182815242602082015233917f75f8eb7c6717170cf4c0d8b709b3f9c99a8587d584032e2dbf17a0106bc02524910160405180910390a250565b61073a6109bf565b606580546001600160a01b0383166001600160a01b0319909116811790915561076b6033546001600160a01b031690565b6001600160a01b03167f38d16b8cac22d99fc7c124b9cd0de2d3fa1faef420bfe791d8c362d765e2270060405160405180910390a350565b600054610100900460ff16158080156107c35750600054600160ff909116105b806107dd5750303b1580156107dd575060005460ff166001145b6108405760405162461bcd60e51b815260206004820152602e60248201527f496e697469616c697a61626c653a20636f6e747261637420697320616c72656160448201526d191e481a5b9a5d1a585b1a5e995960921b6064820152608401610293565b6000805460ff191660011790558015610863576000805461ff0019166101001790555b6001600160a01b0385166108b95760405162461bcd60e51b815260206004820181905260248201527f66696c20746f6b656e20616464726573732063616e6e6f74206265207a65726f6044820152606401610293565b6001600160a01b03841661090f5760405162461bcd60e51b815260206004820181905260248201527f53465420746f6b656e20616464726573732063616e6e6f74206265207a65726f6044820152606401610293565b610917610b41565b61091f610b68565b609780546001600160a01b038088166001600160a01b031992831617909255609880549287169290911691909117905561095883610b98565b61096182610a19565b80156109a7576000805461ff0019169055604051600181527f7f26b83ff96e1f2b6a682f133852f6798a09c465da95921460cefb38474024989060200160405180910390a15b5050505050565b6109b66109bf565b61024481610b98565b6033546001600160a01b0316331461058b5760405162461bcd60e51b815260206004820181905260248201527f4f776e61626c653a2063616c6c6572206973206e6f7420746865206f776e65726044820152606401610293565b609a54604080516001600160a01b03928316815291831660208301527ffc278d7e8bb416cc071a28e3f8c0af8c5d522849ee147b75894e568cd0866fe6910160405180910390a1609a80546001600160a01b0319166001600160a01b0392909216919091179055565b6040516001600160a01b038316602482015260448101829052610ae590849063a9059cbb60e01b906064015b60408051601f198184030181529190526020810180516001600160e01b03166001600160e01b031990931692909217909152610c01565b505050565b606580546001600160a01b031916905561024481610cd3565b6040516001600160a01b0380851660248301528316604482015260648101829052610b3b9085906323b872dd60e01b90608401610aae565b50505050565b600054610100900460ff1661058b5760405162461bcd60e51b81526004016102939061111d565b600054610100900460ff16610b8f5760405162461bcd60e51b81526004016102939061111d565b61058b33610aea565b609954604080516001600160a01b03928316815291831660208301527fe490d3138e32f1f66ef3971a3c73c7f7704ba0c1d1000f1e2c3df6fc0376610b910160405180910390a1609980546001600160a01b0319166001600160a01b0392909216919091179055565b6000610c56826040518060400160405280602081526020017f5361666545524332303a206c6f772d6c6576656c2063616c6c206661696c6564815250856001600160a01b0316610d259092919063ffffffff16565b805190915015610ae55780806020019051810190610c749190611168565b610ae55760405162461bcd60e51b815260206004820152602a60248201527f5361666545524332303a204552433230206f7065726174696f6e20646964206e6044820152691bdd081cdd58d8d9595960b21b6064820152608401610293565b603380546001600160a01b038381166001600160a01b0319831681179093556040519116919082907f8be0079c531659141344cd1fd0a4f28419497f9722a3daafe3b4186f6b6457e090600090a35050565b6060610d348484600085610d3c565b949350505050565b606082471015610d9d5760405162461bcd60e51b815260206004820152602660248201527f416464726573733a20696e73756666696369656e742062616c616e636520666f6044820152651c8818d85b1b60d21b6064820152608401610293565b600080866001600160a01b03168587604051610db991906111b6565b60006040518083038185875af1925050503d8060008114610df6576040519150601f19603f3d011682016040523d82523d6000602084013e610dfb565b606091505b5091509150610e0c87838387610e17565b979650505050505050565b60608315610e83578251610e7c576001600160a01b0385163b610e7c5760405162461bcd60e51b815260206004820152601d60248201527f416464726573733a2063616c6c20746f206e6f6e2d636f6e74726163740000006044820152606401610293565b5081610d34565b610d348383815115610e985781518083602001fd5b8060405162461bcd60e51b815260040161029391906111d2565b6001600160a01b038116811461024457600080fd5b600060208284031215610ed957600080fd5b8135610ee481610eb2565b9392505050565b60008083601f840112610efd57600080fd5b50813567ffffffffffffffff811115610f1557600080fd5b6020830191508360208260051b8501011115610f3057600080fd5b9250929050565b60008060008060408587031215610f4d57600080fd5b843567ffffffffffffffff80821115610f6557600080fd5b610f7188838901610eeb565b90965094506020870135915080821115610f8a57600080fd5b50610f9787828801610eeb565b95989497509550505050565b600060208284031215610fb557600080fd5b5035919050565b60008060008060808587031215610fd257600080fd5b8435610fdd81610eb2565b93506020850135610fed81610eb2565b92506040850135610ffd81610eb2565b9150606085013561100d81610eb2565b939692955090935050565b60006020828403121561102a57600080fd5b5051919050565b634e487b7160e01b600052603260045260246000fd5b634e487b7160e01b600052601160045260246000fd5b600060001982141561107157611071611047565b5060010190565b6060808252810185905260008660808301825b888110156110bb57823561109e81610eb2565b6001600160a01b031682526020928301929091019060010161108b565b5083810360208501528581526001600160fb1b038611156110db57600080fd5b8560051b915081876020830137600091016020019081526040929092019290925295945050505050565b6000821982111561111857611118611047565b500190565b6020808252602b908201527f496e697469616c697a61626c653a20636f6e7472616374206973206e6f74206960408201526a6e697469616c697a696e6760a81b606082015260800190565b60006020828403121561117a57600080fd5b81518015158114610ee457600080fd5b60005b838110156111a557818101518382015260200161118d565b83811115610b3b5750506000910152565b600082516111c881846020870161118a565b9190910192915050565b60208152600082518060208401526111f181604085016020870161118a565b601f01601f1916919091016040019291505056fea26469706673582212201c74bd7c079ba3b280ca7330cc2413dcb5e6977f03a74e99796073db2dbe801764736f6c63430008090033",
  "devdoc": {
    "kind": "dev",
    "methods": {
      "acceptOwnership()": {
        "details": "The new owner accepts the ownership transfer."
      },
      "owner()": {
        "details": "Returns the address of the current owner."
      },
      "pendingOwner()": {
        "details": "Returns the address of the pending owner."
      },
      "renounceOwnership()": {
        "details": "Leaves the contract without owner. It will not be possible to call `onlyOwner` functions anymore. Can only be called by the current owner. NOTE: Renouncing ownership will leave the contract without an owner, thereby removing any functionality that is only available to the owner."
      },
      "transferOwnership(address)": {
        "details": "Starts the ownership transfer of the contract to a new account. Replaces the pending transfer if there is one. Can only be called by the current owner."
      }
    },
    "version": 1
  },
  "userdoc": {
    "kind": "user",
    "methods": {},
    "version": 1
  },
  "storageLayout": {
    "storage": [
      {
        "astId": 244,
        "contract": "contracts/Deposit.sol:Deposit",
        "label": "_initialized",
        "offset": 0,
        "slot": "0",
        "type": "t_uint8"
      },
      {
        "astId": 247,
        "contract": "contracts/Deposit.sol:Deposit",
        "label": "_initializing",
        "offset": 1,
        "slot": "0",
        "type": "t_bool"
      },
      {
        "astId": 731,
        "contract": "contracts/Deposit.sol:Deposit",
        "label": "__gap",
        "offset": 0,
        "slot": "1",
        "type": "t_array(t_uint256)50_storage"
      },
      {
        "astId": 116,
        "contract": "contracts/Deposit.sol:Deposit",
        "label": "_owner",
        "offset": 0,
        "slot": "51",
        "type": "t_address"
      },
      {
        "astId": 236,
        "contract": "contracts/Deposit.sol:Deposit",
        "label": "__gap",
        "offset": 0,
        "slot": "52",
        "type": "t_array(t_uint256)49_storage"
      },
      {
        "astId": 25,
        "contract": "contracts/Deposit.sol:Deposit",
        "label": "_pendingOwner",
        "offset": 0,
        "slot": "101",
        "type": "t_address"
      },
      {
        "astId": 104,
        "contract": "contracts/Deposit.sol:Deposit",
        "label": "__gap",
        "offset": 0,
        "slot": "102",
        "type": "t_array(t_uint256)49_storage"
      },
      {
        "astId": 1471,
        "contract": "contracts/Deposit.sol:Deposit",
        "label": "filToken",
        "offset": 0,
        "slot": "151",
        "type": "t_contract(IERC20)810"
      },
      {
        "astId": 1474,
        "contract": "contracts/Deposit.sol:Deposit",
        "label": "sftToken",
        "offset": 0,
        "slot": "152",
        "type": "t_contract(ISFTToken)1831"
      },
      {
        "astId": 1476,
        "contract": "contracts/Deposit.sol:Deposit",
        "label": "minter",
        "offset": 0,
        "slot": "153",
        "type": "t_address"
      },
      {
        "astId": 1478,
        "contract": "contracts/Deposit.sol:Deposit",
        "label": "taker",
        "offset": 0,
        "slot": "154",
        "type": "t_address"
      },
      {
        "astId": 1480,
        "contract": "contracts/Deposit.sol:Deposit",
        "label": "remainTokens",
        "offset": 0,
        "slot": "155",
        "type": "t_uint256"
      }
    ],
    "types": {
      "t_address": {
        "encoding": "inplace",
        "label": "address",
        "numberOfBytes": "20"
      },
      "t_array(t_uint256)49_storage": {
        "base": "t_uint256",
        "encoding": "inplace",
        "label": "uint256[49]",
        "numberOfBytes": "1568"
      },
      "t_array(t_uint256)50_storage": {
        "base": "t_uint256",
        "encoding": "inplace",
        "label": "uint256[50]",
        "numberOfBytes": "1600"
      },
      "t_bool": {
        "encoding": "inplace",
        "label": "bool",
        "numberOfBytes": "1"
      },
      "t_contract(IERC20)810": {
        "encoding": "inplace",
        "label": "contract IERC20",
        "numberOfBytes": "20"
      },
      "t_contract(ISFTToken)1831": {
        "encoding": "inplace",
        "label": "contract ISFTToken",
        "numberOfBytes": "20"
      },
      "t_uint256": {
        "encoding": "inplace",
        "label": "uint256",
        "numberOfBytes": "32"
      },
      "t_uint8": {
        "encoding": "inplace",
        "label": "uint8",
        "numberOfBytes": "1"
      }
    }
  }
}