{
  "address": "0x63896Cf525DE7B67E5986A31b2E8a8381e9196B5",
  "abi": [
    {
      "anonymous": false,
      "inputs": [
        {
          "indexed": false,
          "internalType": "bytes32",
          "name": "applyId",
          "type": "bytes32"
        },
        {
          "indexed": true,
          "internalType": "address",
          "name": "user",
          "type": "address"
        },
        {
          "indexed": false,
          "internalType": "uint256",
          "name": "amount",
          "type": "uint256"
        },
        {
          "indexed": false,
          "internalType": "uint256",
          "name": "applyTime",
          "type": "uint256"
        }
      ],
      "name": "ApplyWithdraw",
      "type": "event"
    },
    {
      "anonymous": false,
      "inputs": [
        {
          "indexed": true,
          "internalType": "address",
          "name": "user",
          "type": "address"
        },
        {
          "indexed": false,
          "internalType": "uint256",
          "name": "amount",
          "type": "uint256"
        }
      ],
      "name": "DemandDeposit",
      "type": "event"
    },
    {
      "anonymous": false,
      "inputs": [
        {
          "indexed": false,
          "internalType": "uint8",
          "name": "version",
          "type": "uint8"
        }
      ],
      "name": "Initialized",
      "type": "event"
    },
    {
      "anonymous": false,
      "inputs": [
        {
          "indexed": true,
          "internalType": "address",
          "name": "previousOwner",
          "type": "address"
        },
        {
          "indexed": true,
          "internalType": "address",
          "name": "newOwner",
          "type": "address"
        }
      ],
      "name": "OwnershipTransferStarted",
      "type": "event"
    },
    {
      "anonymous": false,
      "inputs": [
        {
          "indexed": true,
          "internalType": "address",
          "name": "previousOwner",
          "type": "address"
        },
        {
          "indexed": true,
          "internalType": "address",
          "name": "newOwner",
          "type": "address"
        }
      ],
      "name": "OwnershipTransferred",
      "type": "event"
    },
    {
      "anonymous": false,
      "inputs": [
        {
          "indexed": true,
          "internalType": "address",
          "name": "account",
          "type": "address"
        },
        {
          "indexed": false,
          "internalType": "bool",
          "name": "authorized",
          "type": "bool"
        }
      ],
      "name": "SetApprover",
      "type": "event"
    },
    {
      "anonymous": false,
      "inputs": [
        {
          "indexed": true,
          "internalType": "address",
          "name": "account",
          "type": "address"
        },
        {
          "indexed": false,
          "internalType": "bool",
          "name": "authorized",
          "type": "bool"
        }
      ],
      "name": "SetAuthority",
      "type": "event"
    },
    {
      "anonymous": false,
      "inputs": [
        {
          "indexed": false,
          "internalType": "uint256",
          "name": "oldDemandDepositLimit",
          "type": "uint256"
        },
        {
          "indexed": false,
          "internalType": "uint256",
          "name": "newDemandDepositLimit",
          "type": "uint256"
        }
      ],
      "name": "SetDemandDepositLimit",
      "type": "event"
    },
    {
      "anonymous": false,
      "inputs": [
        {
          "indexed": false,
          "internalType": "address",
          "name": "oldOracle",
          "type": "address"
        },
        {
          "indexed": false,
          "internalType": "address",
          "name": "newOracle",
          "type": "address"
        }
      ],
      "name": "SetOracle",
      "type": "event"
    },
    {
      "anonymous": false,
      "inputs": [
        {
          "indexed": true,
          "internalType": "address",
          "name": "authority",
          "type": "address"
        },
        {
          "indexed": false,
          "internalType": "uint256",
          "name": "amount",
          "type": "uint256"
        }
      ],
      "name": "TakeTokens",
      "type": "event"
    },
    {
      "anonymous": false,
      "inputs": [
        {
          "indexed": false,
          "internalType": "bytes32",
          "name": "applyId",
          "type": "bytes32"
        },
        {
          "indexed": true,
          "internalType": "address",
          "name": "user",
          "type": "address"
        },
        {
          "indexed": false,
          "internalType": "uint256",
          "name": "amount",
          "type": "uint256"
        },
        {
          "indexed": false,
          "internalType": "uint256",
          "name": "timestamp",
          "type": "uint256"
        }
      ],
      "name": "Withdraw",
      "type": "event"
    },
    {
      "inputs": [],
      "name": "acceptOwnership",
      "outputs": [],
      "stateMutability": "nonpayable",
      "type": "function"
    },
    {
      "inputs": [],
      "name": "applyCount",
      "outputs": [
        {
          "internalType": "uint256",
          "name": "",
          "type": "uint256"
        }
      ],
      "stateMutability": "view",
      "type": "function"
    },
    {
      "inputs": [
        {
          "internalType": "uint256",
          "name": "amount",
          "type": "uint256"
        }
      ],
      "name": "applyWithdraw",
      "outputs": [],
      "stateMutability": "nonpayable",
      "type": "function"
    },
    {
      "inputs": [
        {
          "internalType": "bytes32",
          "name": "applyId",
          "type": "bytes32"
        }
      ],
      "name": "approveWithdraw",
      "outputs": [],
      "stateMutability": "nonpayable",
      "type": "function"
    },
    {
      "inputs": [
        {
          "internalType": "address",
          "name": "",
          "type": "address"
        }
      ],
      "name": "approver",
      "outputs": [
        {
          "internalType": "bool",
          "name": "",
          "type": "bool"
        }
      ],
      "stateMutability": "view",
      "type": "function"
    },
    {
      "inputs": [
        {
          "internalType": "address",
          "name": "",
          "type": "address"
        }
      ],
      "name": "authority",
      "outputs": [
        {
          "internalType": "bool",
          "name": "",
          "type": "bool"
        }
      ],
      "stateMutability": "view",
      "type": "function"
    },
    {
      "inputs": [
        {
          "internalType": "uint256",
          "name": "amount",
          "type": "uint256"
        }
      ],
      "name": "demandDeposit",
      "outputs": [],
      "stateMutability": "nonpayable",
      "type": "function"
    },
    {
      "inputs": [],
      "name": "demandDepositLimit",
      "outputs": [
        {
          "internalType": "uint256",
          "name": "",
          "type": "uint256"
        }
      ],
      "stateMutability": "view",
      "type": "function"
    },
    {
      "inputs": [],
      "name": "demandTotalAmount",
      "outputs": [
        {
          "internalType": "uint256",
          "name": "",
          "type": "uint256"
        }
      ],
      "stateMutability": "view",
      "type": "function"
    },
    {
      "inputs": [
        {
          "internalType": "uint256",
          "name": "",
          "type": "uint256"
        }
      ],
      "name": "depositedList",
      "outputs": [
        {
          "internalType": "address",
          "name": "",
          "type": "address"
        }
      ],
      "stateMutability": "view",
      "type": "function"
    },
    {
      "inputs": [],
      "name": "filToken",
      "outputs": [
        {
          "internalType": "contract IERC20",
          "name": "",
          "type": "address"
        }
      ],
      "stateMutability": "view",
      "type": "function"
    },
    {
      "inputs": [
        {
          "internalType": "contract IERC20",
          "name": "_filToken",
          "type": "address"
        },
        {
          "internalType": "contract ISFTToken",
          "name": "_sftToken",
          "type": "address"
        },
        {
          "internalType": "address",
          "name": "_authority",
          "type": "address"
        },
        {
          "internalType": "address",
          "name": "_approver",
          "type": "address"
        },
        {
          "internalType": "address",
          "name": "_oracle",
          "type": "address"
        },
        {
          "internalType": "uint256",
          "name": "_demandDepositLimit",
          "type": "uint256"
        },
        {
          "internalType": "bool",
          "name": "_mutex",
          "type": "bool"
        },
        {
          "internalType": "uint256",
          "name": "_applyCount",
          "type": "uint256"
        }
      ],
      "name": "initialize",
      "outputs": [],
      "stateMutability": "nonpayable",
      "type": "function"
    },
    {
      "inputs": [],
      "name": "mutex",
      "outputs": [
        {
          "internalType": "bool",
          "name": "",
          "type": "bool"
        }
      ],
      "stateMutability": "view",
      "type": "function"
    },
    {
      "inputs": [],
      "name": "oracle",
      "outputs": [
        {
          "internalType": "address",
          "name": "",
          "type": "address"
        }
      ],
      "stateMutability": "view",
      "type": "function"
    },
    {
      "inputs": [],
      "name": "owner",
      "outputs": [
        {
          "internalType": "address",
          "name": "",
          "type": "address"
        }
      ],
      "stateMutability": "view",
      "type": "function"
    },
    {
      "inputs": [
        {
          "internalType": "uint256",
          "name": "",
          "type": "uint256"
        }
      ],
      "name": "pendingList",
      "outputs": [
        {
          "internalType": "address",
          "name": "",
          "type": "address"
        }
      ],
      "stateMutability": "view",
      "type": "function"
    },
    {
      "inputs": [],
      "name": "pendingOwner",
      "outputs": [
        {
          "internalType": "address",
          "name": "",
          "type": "address"
        }
      ],
      "stateMutability": "view",
      "type": "function"
    },
    {
      "inputs": [],
      "name": "renounceOwnership",
      "outputs": [],
      "stateMutability": "nonpayable",
      "type": "function"
    },
    {
      "inputs": [
        {
          "internalType": "address",
          "name": "_approver",
          "type": "address"
        },
        {
          "internalType": "bool",
          "name": "_authorized",
          "type": "bool"
        }
      ],
      "name": "setApprover",
      "outputs": [],
      "stateMutability": "nonpayable",
      "type": "function"
    },
    {
      "inputs": [
        {
          "internalType": "address",
          "name": "_authority",
          "type": "address"
        },
        {
          "internalType": "bool",
          "name": "_authorized",
          "type": "bool"
        }
      ],
      "name": "setAuthority",
      "outputs": [],
      "stateMutability": "nonpayable",
      "type": "function"
    },
    {
      "inputs": [
        {
          "internalType": "uint256",
          "name": "newemandDepositLimit",
          "type": "uint256"
        }
      ],
      "name": "setDemandDepositLimit",
      "outputs": [],
      "stateMutability": "nonpayable",
      "type": "function"
    },
    {
      "inputs": [
        {
          "internalType": "address",
          "name": "newOracle",
          "type": "address"
        }
      ],
      "name": "setOracle",
      "outputs": [],
      "stateMutability": "nonpayable",
      "type": "function"
    },
    {
      "inputs": [],
      "name": "sftToken",
      "outputs": [
        {
          "internalType": "contract ISFTToken",
          "name": "",
          "type": "address"
        }
      ],
      "stateMutability": "view",
      "type": "function"
    },
    {
      "inputs": [],
      "name": "staked",
      "outputs": [],
      "stateMutability": "nonpayable",
      "type": "function"
    },
    {
      "inputs": [],
      "name": "takeTokens",
      "outputs": [],
      "stateMutability": "nonpayable",
      "type": "function"
    },
    {
      "inputs": [
        {
          "internalType": "address",
          "name": "newOwner",
          "type": "address"
        }
      ],
      "name": "transferOwnership",
      "outputs": [],
      "stateMutability": "nonpayable",
      "type": "function"
    },
    {
      "inputs": [
        {
          "internalType": "address",
          "name": "",
          "type": "address"
        }
      ],
      "name": "userDeposit",
      "outputs": [
        {
          "internalType": "uint256",
          "name": "depositedAmount",
          "type": "uint256"
        },
        {
          "internalType": "uint256",
          "name": "pendingAmount",
          "type": "uint256"
        }
      ],
      "stateMutability": "view",
      "type": "function"
    }
  ],
  "transactionHash": "0xb79999f036e353f82339857ca33ec379a0bda855a0a406cf71d3d4e9af71cc90",
  "args": [],
  "numDeployments": 1,
  "solcInputHash": "7d5125d68650b7d1d291919804106f8f",
  "bytecode": "0x608060405234801561001057600080fd5b50611d07806100206000396000f3fe608060405234801561001057600080fd5b50600436106101a95760003560e01c80637adbf973116100f9578063d1260edd11610097578063d781ff7111610071578063d781ff71146103a8578063e30c3978146103b1578063f2fde38b146103c2578063f86af85f146103d557600080fd5b8063d1260edd14610346578063d5fc44bf14610382578063d76fd2e71461039557600080fd5b80638e18d648116100d35780638e18d648146102f9578063a57207701461030c578063b5f0d35c14610320578063cb9bdcf41461033357600080fd5b80637adbf973146102c25780637dc0d1d0146102d55780638da5cb5b146102e857600080fd5b80633f131d9f116101665780634b095215116101405780634b0952151461027c5780637104dd031461028f578063715018a6146102b257806379ba5097146102ba57600080fd5b80633f131d9f146102295780633fe6cf091461025c57806347b3c4491461027357600080fd5b806303aca792146101ae5780630b76619b146101de5780631aa7ed57146101e85780632191b2b2146101fb578063228130531461020e578063318c00fc14610221575b600080fd5b6101c16101bc366004611a46565b6103e8565b6040516001600160a01b0390911681526020015b60405180910390f35b6101e6610412565b005b6101e66101f6366004611a46565b6105d4565b6101e6610209366004611a46565b6105e8565b6101e661021c366004611a46565b610919565b6101e6610b0c565b61024c610237366004611a74565b60a16020526000908152604090205460ff1681565b60405190151581526020016101d5565b610265609a5481565b6040519081526020016101d5565b610265609b5481565b6101e661028a366004611aa6565b610db5565b61024c61029d366004611a74565b60a06020526000908152604090205460ff1681565b6101e6610ff8565b6101e661100a565b6101e66102d0366004611a74565b611081565b6099546101c1906001600160a01b031681565b6033546001600160a01b03166101c1565b6097546101c1906001600160a01b031681565b60995461024c90600160a01b900460ff1681565b6101e661032e366004611b3d565b611092565b6101c1610341366004611a46565b6110a8565b61036d610354366004611a74565b609f602052600090815260409020805460019091015482565b604080519283526020830191909152016101d5565b6098546101c1906001600160a01b031681565b6101e66103a3366004611b3d565b6110b8565b610265609c5481565b6065546001600160a01b03166101c1565b6101e66103d0366004611a74565b6110ca565b6101e66103e3366004611a46565b61113b565b609e81815481106103f857600080fd5b6000918252602090912001546001600160a01b0316905081565b6099546001600160a01b031633146104685760405162461bcd60e51b81526020600482015260146024820152731bdb9b1e481bdc9858db194818d85b8818d85b1b60621b60448201526064015b60405180910390fd5b609954600160a01b900460ff16156104ac5760405162461bcd60e51b81526020600482015260076024820152666c6f636b65642160c81b604482015260640161045f565b6099805460ff60a01b1916600160a01b179055609e546104c857565b60005b609e548110156105c5576000609f6000609e84815481106104ee576104ee611b76565b60009182526020808320909101546001600160a01b0390811684529083019390935260409091018120600181018054929055609854609e8054929550929316916340c10f19918690811061054457610544611b76565b60009182526020909120015460405160e083901b6001600160e01b03191681526001600160a01b03909116600482015260248101849052604401600060405180830381600087803b15801561059857600080fd5b505af11580156105ac573d6000803e3d6000fd5b50505050505080806105bd90611ba2565b9150506104cb565b506105d2609e6000611a14565b565b6105dc6113c5565b6105e58161141f565b50565b33600090815260a1602052604090205460ff166106365760405162461bcd60e51b815260206004820152600c60248201526b3737ba1030b8383937bb32b960a11b604482015260640161045f565b600081815260a3602052604090206004015460ff161561068c5760405162461bcd60e51b8152602060048201526011602482015270185b1c9958591e481c1c9bd8d95cdcd959607a1b604482015260640161045f565b600081815260a36020526040908190206002810154600182015460985493516370a0823160e01b8152306004820152929391926001600160a01b0391821692849216906370a082319060240160206040518083038186803b1580156106f057600080fd5b505afa158015610704573d6000803e3d6000fd5b505050506040513d601f19601f820116820180604052508101906107289190611bbd565b10156107765760405162461bcd60e51b815260206004820152601b60248201527f696e636f72726563742073667420746f6b656e2062616c616e63650000000000604482015260640161045f565b6097546040516370a0823160e01b815233600482015283916001600160a01b0316906370a082319060240160206040518083038186803b1580156107b957600080fd5b505afa1580156107cd573d6000803e3d6000fd5b505050506040513d601f19601f820116820180604052508101906107f19190611bbd565b101561083f5760405162461bcd60e51b815260206004820152601c60248201527f66696c20746f6b656e2062616c61636e65206e6f7420656e6f75676800000000604482015260640161045f565b60048301805460ff19166001179055609754610866906001600160a01b0316338385611460565b609854604051630852cd8d60e31b8152600481018490526001600160a01b03909116906342966c6890602401600060405180830381600087803b1580156108ac57600080fd5b505af11580156108c0573d6000803e3d6000fd5b5050604080518781526020810186905242918101919091526001600160a01b03841692507fb66d4229fe9107b32cd9afe73d39ebf3d84f2f8c9dda72fedf450fbd02f7018191506060015b60405180910390a250505050565b6097546040516370a0823160e01b815233600482015282916001600160a01b0316906370a082319060240160206040518083038186803b15801561095c57600080fd5b505afa158015610970573d6000803e3d6000fd5b505050506040513d601f19601f820116820180604052508101906109949190611bbd565b10156109db5760405162461bcd60e51b81526020600482015260166024820152750ccd2d840c4c2d8c2dcc6ca40dcdee840cadcdeeaced60531b604482015260640161045f565b609b54609c546109eb9083611bd6565b1115610a305760405162461bcd60e51b8152602060048201526014602482015273195e18d959590819195c1bdcda5d081b1a5b5a5d60621b604482015260640161045f565b609754610a48906001600160a01b0316333084611460565b336000908152609f602052604090208054610aa057609d80546001810182556000919091527fd26e832454299e9fabb89e0e5fffdc046d4e14431bc1bf607ffb2e8a1ddecf7b0180546001600160a01b031916331790555b81816000016000828254610ab49190611bd6565b9250508190555081609c6000828254610acd9190611bd6565b909155505060405182815233907f65d1d1b522c4ff7fbc4d9aed40850a732983d8be21ea116346136e556e7d9e59906020015b60405180910390a25050565b33600090815260a0602052604090205460ff16610b585760405162461bcd60e51b815260206004820152600a60248201526921617574686f7269747960b01b604482015260640161045f565b609954600160a01b900460ff16610b9b5760405162461bcd60e51b81526020600482015260076024820152666c6f636b65642160c81b604482015260640161045f565b6099805460ff60a01b19169055609d54610bb157565b6000805b609d54811015610c9c576000609f6000609d8481548110610bd857610bd8611b76565b60009182526020808320909101546001600160a01b0316835282019290925260400190206001810154909150610c5957609e609d8381548110610c1d57610c1d611b76565b60009182526020808320909101548354600181018555938352912090910180546001600160a01b0319166001600160a01b039092169190911790555b8054600182018054829190600090610c72908490611bd6565b909155505060008255610c858185611bd6565b935050508080610c9490611ba2565b915050610bb5565b506097546040516370a0823160e01b815230600482015282916001600160a01b0316906370a082319060240160206040518083038186803b158015610ce057600080fd5b505afa158015610cf4573d6000803e3d6000fd5b505050506040513d601f19601f82011682018060405250810190610d189190611bbd565b1015610d5a5760405162461bcd60e51b8152602060048201526011602482015270696e636f72726563742062616c616e636560781b604482015260640161045f565b610d66609d6000611a14565b609754610d7d906001600160a01b031633836114d1565b60405181815233907fb0c5ff47f10a2410ce7eb47f13014ccee13e818cc286358e415de3bad6f489d29060200160405180910390a250565b600054610100900460ff1615808015610dd55750600054600160ff909116105b80610def5750303b158015610def575060005460ff166001145b610e525760405162461bcd60e51b815260206004820152602e60248201527f496e697469616c697a61626c653a20636f6e747261637420697320616c72656160448201526d191e481a5b9a5d1a585b1a5e995960921b606482015260840161045f565b6000805460ff191660011790558015610e75576000805461ff0019166101001790555b6001600160a01b038916610ecb5760405162461bcd60e51b815260206004820181905260248201527f66696c20746f6b656e20616464726573732063616e6e6f74206265207a65726f604482015260640161045f565b6001600160a01b038816610f215760405162461bcd60e51b815260206004820181905260248201527f53465420746f6b656e20616464726573732063616e6e6f74206265207a65726f604482015260640161045f565b610f29611506565b610f3161152d565b609780546001600160a01b03808c166001600160a01b03199283161790925560988054928b169290911691909117905560998054841515600160a01b0260ff60a01b19909116179055609a829055610f8a87600161155d565b610f958660016115fd565b610f9e8561169c565b610fa78461141f565b8015610fed576000805461ff0019169055604051600181527f7f26b83ff96e1f2b6a682f133852f6798a09c465da95921460cefb38474024989060200160405180910390a15b505050505050505050565b6110006113c5565b6105d2600061174a565b60655433906001600160a01b031681146110785760405162461bcd60e51b815260206004820152602960248201527f4f776e61626c6532537465703a2063616c6c6572206973206e6f7420746865206044820152683732bb9037bbb732b960b91b606482015260840161045f565b6105e58161174a565b6110896113c5565b6105e58161169c565b61109a6113c5565b6110a4828261155d565b5050565b609d81815481106103f857600080fd5b6110c06113c5565b6110a482826115fd565b6110d26113c5565b606580546001600160a01b0383166001600160a01b031990911681179091556111036033546001600160a01b031690565b6001600160a01b03167f38d16b8cac22d99fc7c124b9cd0de2d3fa1faef420bfe791d8c362d765e2270060405160405180910390a350565b6098546040516370a0823160e01b815233600482015282916001600160a01b0316906370a082319060240160206040518083038186803b15801561117e57600080fd5b505afa158015611192573d6000803e3d6000fd5b505050506040513d601f19601f820116820180604052508101906111b69190611bbd565b10156112045760405162461bcd60e51b815260206004820152601c60248201527f73667420746f6b656e2062616c616e6365206e6f7420656e6f75676800000000604482015260640161045f565b6098546040516323b872dd60e01b8152336004820152306024820152604481018390526001600160a01b03909116906323b872dd90606401602060405180830381600087803b15801561125657600080fd5b505af115801561126a573d6000803e3d6000fd5b505050506040513d601f19601f8201168201806040525081019061128e9190611bee565b6112cb5760405162461bcd60e51b815260206004820152600e60248201526d1d1c985b99995c88199a585b195960921b604482015260640161045f565b609a80549060019060006112df8385611bd6565b90915550506040516bffffffffffffffffffffffff193360601b1660208201526034810182905260009060540160408051601f198184030181528282528051602091820120600081815260a38352838120828155600180820180546001600160a01b03191633908117909155600283018b905560048301805460ff19169055600383018a9055426005840181905581855260a287528785208054938401815585529386902090910184905583875293860189905293850152935090917fe7b518091de9414dd6a88899fa7032485092f616f1c94271c75e0172a75e20549060600161090b565b6033546001600160a01b031633146105d25760405162461bcd60e51b815260206004820181905260248201527f4f776e61626c653a2063616c6c6572206973206e6f7420746865206f776e6572604482015260640161045f565b609b5460408051918252602082018390527f08851b5ecdc64f4d483ecaa7eba451f797d5ef96ce824ba9241603027769f2a6910160405180910390a1609b55565b6040516001600160a01b03808516602483015283166044820152606481018290526114cb9085906323b872dd60e01b906084015b60408051601f198184030181529190526020810180516001600160e01b03166001600160e01b031990931692909217909152611763565b50505050565b6040516001600160a01b03831660248201526044810182905261150190849063a9059cbb60e01b90606401611494565b505050565b600054610100900460ff166105d25760405162461bcd60e51b815260040161045f90611c0b565b600054610100900460ff166115545760405162461bcd60e51b815260040161045f90611c0b565b6105d23361174a565b6001600160a01b0382166115a55760405162461bcd60e51b815260206004820152600f60248201526e656d70747920617574686f7269747960881b604482015260640161045f565b6001600160a01b038216600081815260a06020908152604091829020805460ff191685151590811790915591519182527f9019659af698fad527191eef17d6d00706d88aa9fabff25a08edea756c3619939101610b00565b6001600160a01b0382166116445760405162461bcd60e51b815260206004820152600e60248201526d32b6b83a3c9030b8383937bb32b960911b604482015260640161045f565b6001600160a01b038216600081815260a16020908152604091829020805460ff191685151590811790915591519182527f323888aef1ea04a125806387c1f89db9bd9c5c6f40a1f2303e57fc3b9e8d8cf09101610b00565b6001600160a01b0381166116e15760405162461bcd60e51b815260206004820152600c60248201526b656d707479206f7261636c6560a01b604482015260640161045f565b609954604080516001600160a01b03928316815291831660208301527fb7261e9c33aa7c56209c3bf60b424a8f9551ce28876c0ab3d0c487695e943487910160405180910390a1609980546001600160a01b0319166001600160a01b0392909216919091179055565b606580546001600160a01b03191690556105e581611835565b60006117b8826040518060400160405280602081526020017f5361666545524332303a206c6f772d6c6576656c2063616c6c206661696c6564815250856001600160a01b03166118879092919063ffffffff16565b80519091501561150157808060200190518101906117d69190611bee565b6115015760405162461bcd60e51b815260206004820152602a60248201527f5361666545524332303a204552433230206f7065726174696f6e20646964206e6044820152691bdd081cdd58d8d9595960b21b606482015260840161045f565b603380546001600160a01b038381166001600160a01b0319831681179093556040519116919082907f8be0079c531659141344cd1fd0a4f28419497f9722a3daafe3b4186f6b6457e090600090a35050565b6060611896848460008561189e565b949350505050565b6060824710156118ff5760405162461bcd60e51b815260206004820152602660248201527f416464726573733a20696e73756666696369656e742062616c616e636520666f6044820152651c8818d85b1b60d21b606482015260840161045f565b600080866001600160a01b0316858760405161191b9190611c82565b60006040518083038185875af1925050503d8060008114611958576040519150601f19603f3d011682016040523d82523d6000602084013e61195d565b606091505b509150915061196e87838387611979565b979650505050505050565b606083156119e55782516119de576001600160a01b0385163b6119de5760405162461bcd60e51b815260206004820152601d60248201527f416464726573733a2063616c6c20746f206e6f6e2d636f6e7472616374000000604482015260640161045f565b5081611896565b61189683838151156119fa5781518083602001fd5b8060405162461bcd60e51b815260040161045f9190611c9e565b50805460008255906000526020600020908101906105e591905b80821115611a425760008155600101611a2e565b5090565b600060208284031215611a5857600080fd5b5035919050565b6001600160a01b03811681146105e557600080fd5b600060208284031215611a8657600080fd5b8135611a9181611a5f565b9392505050565b80151581146105e557600080fd5b600080600080600080600080610100898b031215611ac357600080fd5b8835611ace81611a5f565b97506020890135611ade81611a5f565b96506040890135611aee81611a5f565b95506060890135611afe81611a5f565b94506080890135611b0e81611a5f565b935060a0890135925060c0890135611b2581611a98565b8092505060e089013590509295985092959890939650565b60008060408385031215611b5057600080fd5b8235611b5b81611a5f565b91506020830135611b6b81611a98565b809150509250929050565b634e487b7160e01b600052603260045260246000fd5b634e487b7160e01b600052601160045260246000fd5b6000600019821415611bb657611bb6611b8c565b5060010190565b600060208284031215611bcf57600080fd5b5051919050565b60008219821115611be957611be9611b8c565b500190565b600060208284031215611c0057600080fd5b8151611a9181611a98565b6020808252602b908201527f496e697469616c697a61626c653a20636f6e7472616374206973206e6f74206960408201526a6e697469616c697a696e6760a81b606082015260800190565b60005b83811015611c71578181015183820152602001611c59565b838111156114cb5750506000910152565b60008251611c94818460208701611c56565b9190910192915050565b6020815260008251806020840152611cbd816040850160208701611c56565b601f01601f1916919091016040019291505056fea26469706673582212209f4c28afe84222fe020832d7c282f822f023599f5ed623cdc7ba7dad598144e964736f6c63430008090033",
  "devdoc": {
    "kind": "dev",
    "methods": {
      "acceptOwnership()": {
        "details": "The new owner accepts the ownership transfer."
      },
      "owner()": {
        "details": "Returns the address of the current owner."
      },
      "pendingOwner()": {
        "details": "Returns the address of the pending owner."
      },
      "renounceOwnership()": {
        "details": "Leaves the contract without owner. It will not be possible to call `onlyOwner` functions anymore. Can only be called by the current owner. NOTE: Renouncing ownership will leave the contract without an owner, thereby removing any functionality that is only available to the owner."
      },
      "transferOwnership(address)": {
        "details": "Starts the ownership transfer of the contract to a new account. Replaces the pending transfer if there is one. Can only be called by the current owner."
      }
    },
    "version": 1
  },
  "userdoc": {
    "kind": "user",
    "methods": {},
    "version": 1
  },
  "storageLayout": {
    "storage": [
      {
        "astId": 244,
        "contract": "contracts/Deposit.sol:Deposit",
        "label": "_initialized",
        "offset": 0,
        "slot": "0",
        "type": "t_uint8"
      },
      {
        "astId": 247,
        "contract": "contracts/Deposit.sol:Deposit",
        "label": "_initializing",
        "offset": 1,
        "slot": "0",
        "type": "t_bool"
      },
      {
        "astId": 731,
        "contract": "contracts/Deposit.sol:Deposit",
        "label": "__gap",
        "offset": 0,
        "slot": "1",
        "type": "t_array(t_uint256)50_storage"
      },
      {
        "astId": 116,
        "contract": "contracts/Deposit.sol:Deposit",
        "label": "_owner",
        "offset": 0,
        "slot": "51",
        "type": "t_address"
      },
      {
        "astId": 236,
        "contract": "contracts/Deposit.sol:Deposit",
        "label": "__gap",
        "offset": 0,
        "slot": "52",
        "type": "t_array(t_uint256)49_storage"
      },
      {
        "astId": 25,
        "contract": "contracts/Deposit.sol:Deposit",
        "label": "_pendingOwner",
        "offset": 0,
        "slot": "101",
        "type": "t_address"
      },
      {
        "astId": 104,
        "contract": "contracts/Deposit.sol:Deposit",
        "label": "__gap",
        "offset": 0,
        "slot": "102",
        "type": "t_array(t_uint256)49_storage"
      },
      {
        "astId": 1489,
        "contract": "contracts/Deposit.sol:Deposit",
        "label": "filToken",
        "offset": 0,
        "slot": "151",
        "type": "t_contract(IERC20)810"
      },
      {
        "astId": 1492,
        "contract": "contracts/Deposit.sol:Deposit",
        "label": "sftToken",
        "offset": 0,
        "slot": "152",
        "type": "t_contract(ISFTToken)2936"
      },
      {
        "astId": 1494,
        "contract": "contracts/Deposit.sol:Deposit",
        "label": "oracle",
        "offset": 0,
        "slot": "153",
        "type": "t_address"
      },
      {
        "astId": 1496,
        "contract": "contracts/Deposit.sol:Deposit",
        "label": "mutex",
        "offset": 20,
        "slot": "153",
        "type": "t_bool"
      },
      {
        "astId": 1498,
        "contract": "contracts/Deposit.sol:Deposit",
        "label": "applyCount",
        "offset": 0,
        "slot": "154",
        "type": "t_uint256"
      },
      {
        "astId": 1500,
        "contract": "contracts/Deposit.sol:Deposit",
        "label": "demandDepositLimit",
        "offset": 0,
        "slot": "155",
        "type": "t_uint256"
      },
      {
        "astId": 1502,
        "contract": "contracts/Deposit.sol:Deposit",
        "label": "demandTotalAmount",
        "offset": 0,
        "slot": "156",
        "type": "t_uint256"
      },
      {
        "astId": 1505,
        "contract": "contracts/Deposit.sol:Deposit",
        "label": "depositedList",
        "offset": 0,
        "slot": "157",
        "type": "t_array(t_address)dyn_storage"
      },
      {
        "astId": 1508,
        "contract": "contracts/Deposit.sol:Deposit",
        "label": "pendingList",
        "offset": 0,
        "slot": "158",
        "type": "t_array(t_address)dyn_storage"
      },
      {
        "astId": 1513,
        "contract": "contracts/Deposit.sol:Deposit",
        "label": "userDeposit",
        "offset": 0,
        "slot": "159",
        "type": "t_mapping(t_address,t_struct(UserDeposit)1473_storage)"
      },
      {
        "astId": 1517,
        "contract": "contracts/Deposit.sol:Deposit",
        "label": "authority",
        "offset": 0,
        "slot": "160",
        "type": "t_mapping(t_address,t_bool)"
      },
      {
        "astId": 1521,
        "contract": "contracts/Deposit.sol:Deposit",
        "label": "approver",
        "offset": 0,
        "slot": "161",
        "type": "t_mapping(t_address,t_bool)"
      },
      {
        "astId": 1526,
        "contract": "contracts/Deposit.sol:Deposit",
        "label": "userApplications",
        "offset": 0,
        "slot": "162",
        "type": "t_mapping(t_address,t_array(t_bytes32)dyn_storage)"
      },
      {
        "astId": 1531,
        "contract": "contracts/Deposit.sol:Deposit",
        "label": "withdrawApplication",
        "offset": 0,
        "slot": "163",
        "type": "t_mapping(t_bytes32,t_struct(WithdrawApplication)1486_storage)"
      }
    ],
    "types": {
      "t_address": {
        "encoding": "inplace",
        "label": "address",
        "numberOfBytes": "20"
      },
      "t_array(t_address)dyn_storage": {
        "base": "t_address",
        "encoding": "dynamic_array",
        "label": "address[]",
        "numberOfBytes": "32"
      },
      "t_array(t_bytes32)dyn_storage": {
        "base": "t_bytes32",
        "encoding": "dynamic_array",
        "label": "bytes32[]",
        "numberOfBytes": "32"
      },
      "t_array(t_uint256)49_storage": {
        "base": "t_uint256",
        "encoding": "inplace",
        "label": "uint256[49]",
        "numberOfBytes": "1568"
      },
      "t_array(t_uint256)50_storage": {
        "base": "t_uint256",
        "encoding": "inplace",
        "label": "uint256[50]",
        "numberOfBytes": "1600"
      },
      "t_bool": {
        "encoding": "inplace",
        "label": "bool",
        "numberOfBytes": "1"
      },
      "t_bytes32": {
        "encoding": "inplace",
        "label": "bytes32",
        "numberOfBytes": "32"
      },
      "t_contract(IERC20)810": {
        "encoding": "inplace",
        "label": "contract IERC20",
        "numberOfBytes": "20"
      },
      "t_contract(ISFTToken)2936": {
        "encoding": "inplace",
        "label": "contract ISFTToken",
        "numberOfBytes": "20"
      },
      "t_mapping(t_address,t_array(t_bytes32)dyn_storage)": {
        "encoding": "mapping",
        "key": "t_address",
        "label": "mapping(address => bytes32[])",
        "numberOfBytes": "32",
        "value": "t_array(t_bytes32)dyn_storage"
      },
      "t_mapping(t_address,t_bool)": {
        "encoding": "mapping",
        "key": "t_address",
        "label": "mapping(address => bool)",
        "numberOfBytes": "32",
        "value": "t_bool"
      },
      "t_mapping(t_address,t_struct(UserDeposit)1473_storage)": {
        "encoding": "mapping",
        "key": "t_address",
        "label": "mapping(address => struct Deposit.UserDeposit)",
        "numberOfBytes": "32",
        "value": "t_struct(UserDeposit)1473_storage"
      },
      "t_mapping(t_bytes32,t_struct(WithdrawApplication)1486_storage)": {
        "encoding": "mapping",
        "key": "t_bytes32",
        "label": "mapping(bytes32 => struct Deposit.WithdrawApplication)",
        "numberOfBytes": "32",
        "value": "t_struct(WithdrawApplication)1486_storage"
      },
      "t_struct(UserDeposit)1473_storage": {
        "encoding": "inplace",
        "label": "struct Deposit.UserDeposit",
        "members": [
          {
            "astId": 1470,
            "contract": "contracts/Deposit.sol:Deposit",
            "label": "depositedAmount",
            "offset": 0,
            "slot": "0",
            "type": "t_uint256"
          },
          {
            "astId": 1472,
            "contract": "contracts/Deposit.sol:Deposit",
            "label": "pendingAmount",
            "offset": 0,
            "slot": "1",
            "type": "t_uint256"
          }
        ],
        "numberOfBytes": "64"
      },
      "t_struct(WithdrawApplication)1486_storage": {
        "encoding": "inplace",
        "label": "struct Deposit.WithdrawApplication",
        "members": [
          {
            "astId": 1475,
            "contract": "contracts/Deposit.sol:Deposit",
            "label": "applyId",
            "offset": 0,
            "slot": "0",
            "type": "t_bytes32"
          },
          {
            "astId": 1477,
            "contract": "contracts/Deposit.sol:Deposit",
            "label": "user",
            "offset": 0,
            "slot": "1",
            "type": "t_address"
          },
          {
            "astId": 1479,
            "contract": "contracts/Deposit.sol:Deposit",
            "label": "amount",
            "offset": 0,
            "slot": "2",
            "type": "t_uint256"
          },
          {
            "astId": 1481,
            "contract": "contracts/Deposit.sol:Deposit",
            "label": "nonce",
            "offset": 0,
            "slot": "3",
            "type": "t_uint256"
          },
          {
            "astId": 1483,
            "contract": "contracts/Deposit.sol:Deposit",
            "label": "processed",
            "offset": 0,
            "slot": "4",
            "type": "t_bool"
          },
          {
            "astId": 1485,
            "contract": "contracts/Deposit.sol:Deposit",
            "label": "applyTime",
            "offset": 0,
            "slot": "5",
            "type": "t_uint256"
          }
        ],
        "numberOfBytes": "192"
      },
      "t_uint256": {
        "encoding": "inplace",
        "label": "uint256",
        "numberOfBytes": "32"
      },
      "t_uint8": {
        "encoding": "inplace",
        "label": "uint8",
        "numberOfBytes": "1"
      }
    }
  }
}