{
  "address": "0x14D02FD1bdf5375A9f472F8Dc569979B0a0d4496",
  "abi": [
    {
      "anonymous": false,
      "inputs": [
        {
          "indexed": true,
          "internalType": "address",
          "name": "user",
          "type": "address"
        },
        {
          "indexed": true,
          "internalType": "uint256",
          "name": "pid",
          "type": "uint256"
        },
        {
          "indexed": false,
          "internalType": "uint256",
          "name": "index",
          "type": "uint256"
        },
        {
          "indexed": false,
          "internalType": "uint256",
          "name": "amount",
          "type": "uint256"
        }
      ],
      "name": "Claim",
      "type": "event"
    },
    {
      "anonymous": false,
      "inputs": [
        {
          "indexed": false,
          "internalType": "address",
          "name": "distributor",
          "type": "address"
        },
        {
          "indexed": false,
          "internalType": "address[]",
          "name": "userList",
          "type": "address[]"
        },
        {
          "indexed": false,
          "internalType": "uint256[]",
          "name": "pidList",
          "type": "uint256[]"
        },
        {
          "indexed": false,
          "internalType": "uint256[]",
          "name": "indexList",
          "type": "uint256[]"
        },
        {
          "indexed": false,
          "internalType": "uint256[]",
          "name": "rewardList",
          "type": "uint256[]"
        },
        {
          "indexed": false,
          "internalType": "uint256",
          "name": "totalRewads",
          "type": "uint256"
        }
      ],
      "name": "DistributeReward",
      "type": "event"
    },
    {
      "anonymous": false,
      "inputs": [
        {
          "indexed": false,
          "internalType": "address",
          "name": "distributor",
          "type": "address"
        },
        {
          "indexed": false,
          "internalType": "address",
          "name": "user",
          "type": "address"
        },
        {
          "indexed": false,
          "internalType": "uint256",
          "name": "pid",
          "type": "uint256"
        },
        {
          "indexed": false,
          "internalType": "uint256",
          "name": "index",
          "type": "uint256"
        },
        {
          "indexed": false,
          "internalType": "uint256",
          "name": "reward",
          "type": "uint256"
        }
      ],
      "name": "DistributeSingleReward",
      "type": "event"
    },
    {
      "anonymous": false,
      "inputs": [
        {
          "indexed": false,
          "internalType": "uint8",
          "name": "version",
          "type": "uint8"
        }
      ],
      "name": "Initialized",
      "type": "event"
    },
    {
      "anonymous": false,
      "inputs": [
        {
          "indexed": true,
          "internalType": "address",
          "name": "previousOwner",
          "type": "address"
        },
        {
          "indexed": true,
          "internalType": "address",
          "name": "newOwner",
          "type": "address"
        }
      ],
      "name": "OwnershipTransferStarted",
      "type": "event"
    },
    {
      "anonymous": false,
      "inputs": [
        {
          "indexed": true,
          "internalType": "address",
          "name": "previousOwner",
          "type": "address"
        },
        {
          "indexed": true,
          "internalType": "address",
          "name": "newOwner",
          "type": "address"
        }
      ],
      "name": "OwnershipTransferred",
      "type": "event"
    },
    {
      "anonymous": false,
      "inputs": [
        {
          "indexed": false,
          "internalType": "address",
          "name": "oldDistributor",
          "type": "address"
        },
        {
          "indexed": false,
          "internalType": "address",
          "name": "newDistributor",
          "type": "address"
        }
      ],
      "name": "SetDistributor",
      "type": "event"
    },
    {
      "anonymous": false,
      "inputs": [
        {
          "indexed": false,
          "internalType": "uint256",
          "name": "pid",
          "type": "uint256"
        },
        {
          "indexed": false,
          "internalType": "uint256",
          "name": "lockPeriod",
          "type": "uint256"
        }
      ],
      "name": "SetPool",
      "type": "event"
    },
    {
      "anonymous": false,
      "inputs": [
        {
          "indexed": true,
          "internalType": "address",
          "name": "user",
          "type": "address"
        },
        {
          "indexed": true,
          "internalType": "uint256",
          "name": "pid",
          "type": "uint256"
        },
        {
          "indexed": false,
          "internalType": "uint256",
          "name": "index",
          "type": "uint256"
        },
        {
          "indexed": false,
          "internalType": "uint256",
          "name": "amount",
          "type": "uint256"
        }
      ],
      "name": "Stake",
      "type": "event"
    },
    {
      "anonymous": false,
      "inputs": [
        {
          "indexed": true,
          "internalType": "address",
          "name": "to",
          "type": "address"
        },
        {
          "indexed": true,
          "internalType": "address",
          "name": "token",
          "type": "address"
        },
        {
          "indexed": false,
          "internalType": "uint256",
          "name": "amount",
          "type": "uint256"
        }
      ],
      "name": "TokensRescued",
      "type": "event"
    },
    {
      "anonymous": false,
      "inputs": [
        {
          "indexed": true,
          "internalType": "address",
          "name": "user",
          "type": "address"
        },
        {
          "indexed": true,
          "internalType": "uint256",
          "name": "pid",
          "type": "uint256"
        },
        {
          "indexed": false,
          "internalType": "uint256",
          "name": "index",
          "type": "uint256"
        },
        {
          "indexed": false,
          "internalType": "uint256",
          "name": "amount",
          "type": "uint256"
        }
      ],
      "name": "Unstake",
      "type": "event"
    },
    {
      "inputs": [],
      "name": "acceptOwnership",
      "outputs": [],
      "stateMutability": "nonpayable",
      "type": "function"
    },
    {
      "inputs": [
        {
          "internalType": "uint256",
          "name": "pid",
          "type": "uint256"
        },
        {
          "internalType": "uint256",
          "name": "index",
          "type": "uint256"
        },
        {
          "internalType": "uint256",
          "name": "amount",
          "type": "uint256"
        }
      ],
      "name": "claim",
      "outputs": [],
      "stateMutability": "nonpayable",
      "type": "function"
    },
    {
      "inputs": [
        {
          "internalType": "address[]",
          "name": "userList",
          "type": "address[]"
        },
        {
          "internalType": "uint256[]",
          "name": "pidList",
          "type": "uint256[]"
        },
        {
          "internalType": "uint256[]",
          "name": "indexList",
          "type": "uint256[]"
        },
        {
          "internalType": "uint256[]",
          "name": "rewardList",
          "type": "uint256[]"
        },
        {
          "internalType": "uint256",
          "name": "totalRewards",
          "type": "uint256"
        }
      ],
      "name": "distributeReward",
      "outputs": [],
      "stateMutability": "nonpayable",
      "type": "function"
    },
    {
      "inputs": [],
      "name": "distributor",
      "outputs": [
        {
          "internalType": "address",
          "name": "",
          "type": "address"
        }
      ],
      "stateMutability": "view",
      "type": "function"
    },
    {
      "inputs": [],
      "name": "filToken",
      "outputs": [
        {
          "internalType": "contract IERC20",
          "name": "",
          "type": "address"
        }
      ],
      "stateMutability": "view",
      "type": "function"
    },
    {
      "inputs": [
        {
          "internalType": "address",
          "name": "user",
          "type": "address"
        },
        {
          "internalType": "uint256",
          "name": "pid",
          "type": "uint256"
        }
      ],
      "name": "getUserInfo",
      "outputs": [
        {
          "components": [
            {
              "internalType": "uint256",
              "name": "amount",
              "type": "uint256"
            },
            {
              "internalType": "uint256",
              "name": "stakeAt",
              "type": "uint256"
            },
            {
              "internalType": "uint256",
              "name": "lockPeriod",
              "type": "uint256"
            },
            {
              "internalType": "uint256",
              "name": "totalRewards",
              "type": "uint256"
            },
            {
              "internalType": "uint256",
              "name": "unclaimedRewards",
              "type": "uint256"
            }
          ],
          "internalType": "struct Reward.LockInfo[]",
          "name": "",
          "type": "tuple[]"
        }
      ],
      "stateMutability": "view",
      "type": "function"
    },
    {
      "inputs": [
        {
          "internalType": "contract IERC20",
          "name": "_filToken",
          "type": "address"
        },
        {
          "internalType": "contract ISFTToken",
          "name": "_sftToken",
          "type": "address"
        },
        {
          "internalType": "address",
          "name": "_distributor",
          "type": "address"
        }
      ],
      "name": "initialize",
      "outputs": [],
      "stateMutability": "nonpayable",
      "type": "function"
    },
    {
      "inputs": [],
      "name": "owner",
      "outputs": [
        {
          "internalType": "address",
          "name": "",
          "type": "address"
        }
      ],
      "stateMutability": "view",
      "type": "function"
    },
    {
      "inputs": [],
      "name": "pendingOwner",
      "outputs": [
        {
          "internalType": "address",
          "name": "",
          "type": "address"
        }
      ],
      "stateMutability": "view",
      "type": "function"
    },
    {
      "inputs": [
        {
          "internalType": "uint256",
          "name": "",
          "type": "uint256"
        }
      ],
      "name": "pools",
      "outputs": [
        {
          "internalType": "uint256",
          "name": "",
          "type": "uint256"
        }
      ],
      "stateMutability": "view",
      "type": "function"
    },
    {
      "inputs": [],
      "name": "renounceOwnership",
      "outputs": [],
      "stateMutability": "nonpayable",
      "type": "function"
    },
    {
      "inputs": [
        {
          "internalType": "address",
          "name": "_to",
          "type": "address"
        },
        {
          "internalType": "address",
          "name": "_token",
          "type": "address"
        },
        {
          "internalType": "uint256",
          "name": "_amount",
          "type": "uint256"
        }
      ],
      "name": "rescueTokens",
      "outputs": [],
      "stateMutability": "nonpayable",
      "type": "function"
    },
    {
      "inputs": [
        {
          "internalType": "address",
          "name": "newDistributor",
          "type": "address"
        }
      ],
      "name": "setDistributor",
      "outputs": [],
      "stateMutability": "nonpayable",
      "type": "function"
    },
    {
      "inputs": [
        {
          "internalType": "uint256",
          "name": "pid",
          "type": "uint256"
        },
        {
          "internalType": "uint256",
          "name": "lockPeriod",
          "type": "uint256"
        }
      ],
      "name": "setPool",
      "outputs": [],
      "stateMutability": "nonpayable",
      "type": "function"
    },
    {
      "inputs": [],
      "name": "sftToken",
      "outputs": [
        {
          "internalType": "contract ISFTToken",
          "name": "",
          "type": "address"
        }
      ],
      "stateMutability": "view",
      "type": "function"
    },
    {
      "inputs": [
        {
          "internalType": "uint256",
          "name": "pid",
          "type": "uint256"
        },
        {
          "internalType": "uint256",
          "name": "amount",
          "type": "uint256"
        }
      ],
      "name": "stake",
      "outputs": [],
      "stateMutability": "nonpayable",
      "type": "function"
    },
    {
      "inputs": [
        {
          "internalType": "address",
          "name": "newOwner",
          "type": "address"
        }
      ],
      "name": "transferOwnership",
      "outputs": [],
      "stateMutability": "nonpayable",
      "type": "function"
    },
    {
      "inputs": [
        {
          "internalType": "uint256",
          "name": "pid",
          "type": "uint256"
        },
        {
          "internalType": "uint256",
          "name": "index",
          "type": "uint256"
        },
        {
          "internalType": "uint256",
          "name": "amount",
          "type": "uint256"
        }
      ],
      "name": "unstake",
      "outputs": [],
      "stateMutability": "nonpayable",
      "type": "function"
    },
    {
      "inputs": [
        {
          "internalType": "address",
          "name": "",
          "type": "address"
        },
        {
          "internalType": "uint256",
          "name": "",
          "type": "uint256"
        },
        {
          "internalType": "uint256",
          "name": "",
          "type": "uint256"
        }
      ],
      "name": "userInfo",
      "outputs": [
        {
          "internalType": "uint256",
          "name": "amount",
          "type": "uint256"
        },
        {
          "internalType": "uint256",
          "name": "stakeAt",
          "type": "uint256"
        },
        {
          "internalType": "uint256",
          "name": "lockPeriod",
          "type": "uint256"
        },
        {
          "internalType": "uint256",
          "name": "totalRewards",
          "type": "uint256"
        },
        {
          "internalType": "uint256",
          "name": "unclaimedRewards",
          "type": "uint256"
        }
      ],
      "stateMutability": "view",
      "type": "function"
    }
  ],
  "transactionHash": "0xb23a6dc98ab34c3691da6c35cc90a69ebb4886bae730672fe3b70af7df935304",
  "args": [],
  "numDeployments": 5,
  "solcInputHash": "0722a439cde09db692310cdaa922c7ac",
  "bytecode": "0x608060405234801561001057600080fd5b50611d84806100206000396000f3fe608060405234801561001057600080fd5b50600436106101205760003560e01c80638e18d648116100ad578063cea9d26f11610071578063cea9d26f14610282578063d5fc44bf14610295578063e30c3978146102a8578063efa9a9be146102b9578063f2fde38b146102cc57600080fd5b80638e18d64814610208578063ac4afa381461021b578063bd97b37514610249578063bfe109281461025c578063c0c53b8b1461026f57600080fd5b806375619ab5116100f457806375619ab51461019557806376e8424f146101a857806379ba5097146101c85780637b0472f0146101d05780638da5cb5b146101e357600080fd5b80627960a41461012557806327af251e1461016557806346430af11461017a578063715018a61461018d575b600080fd5b6101386101333660046117fb565b6102df565b604080519586526020860194909452928401919091526060830152608082015260a0015b60405180910390f35b61017861017336600461187c565b610339565b005b610178610188366004611948565b610726565b61017861073c565b6101786101a336600461196a565b610750565b6101bb6101b636600461198e565b610764565b60405161015c91906119ba565b610178610814565b6101786101de366004611948565b61088b565b6033546001600160a01b03165b6040516001600160a01b03909116815260200161015c565b6097546101f0906001600160a01b031681565b61023b610229366004611a28565b609a6020526000908152604090205481565b60405190815260200161015c565b610178610257366004611a41565b610c22565b6099546101f0906001600160a01b031681565b61017861027d366004611a6d565b610e3e565b610178610290366004611ab8565b61104d565b6098546101f0906001600160a01b031681565b6065546001600160a01b03166101f0565b6101786102c7366004611a41565b61114b565b6101786102da36600461196a565b611245565b609b602052826000526040600020602052816000526040600020818154811061030757600080fd5b600091825260209091206005909102018054600182015460028301546003840154600490940154929650909450925085565b6099546001600160a01b031633146103985760405162461bcd60e51b815260206004820152601960248201527f6f6e6c79206469737472696275746f722063616e2063616c6c0000000000000060448201526064015b60405180910390fd5b87861480156103a657508784145b80156103b157508782145b6103f05760405162461bcd60e51b815260206004820152601060248201526f696e636f7272656e7420706172616d7360801b604482015260640161038f565b6097546040516370a0823160e01b815233600482015282916001600160a01b0316906370a082319060240160206040518083038186803b15801561043357600080fd5b505afa158015610447573d6000803e3d6000fd5b505050506040513d601f19601f8201168201806040525081019061046b9190611af9565b10156104b95760405162461bcd60e51b815260206004820152601c60248201527f66696c20746f6b656e2062616c616e6365206e6f7420656e6f75676800000000604482015260640161038f565b60005b888110156106b9576000609b60008c8c858181106104dc576104dc611b12565b90506020020160208101906104f1919061196a565b6001600160a01b03166001600160a01b0316815260200190815260200160002060008a8a8581811061052557610525611b12565b90506020020135815260200190815260200160002087878481811061054c5761054c611b12565b905060200201358154811061056357610563611b12565b9060005260206000209060050201905084848381811061058557610585611b12565b9050602002013581600301600082825461059f9190611b3e565b9091555085905084838181106105b7576105b7611b12565b905060200201358160040160008282546105d19190611b3e565b909155507f81fd688f50fe2c01e0c8d6a8d44ae63b58d39e24a2edff03e2903416f91c47629050338c8c8581811061060b5761060b611b12565b9050602002016020810190610620919061196a565b8b8b8681811061063257610632611b12565b905060200201358a8a8781811061064b5761064b611b12565b9050602002013589898881811061066457610664611b12565b604080516001600160a01b039889168152979096166020888101919091529587019490945250606085019190915291020135608082015260a00160405180910390a150806106b181611b56565b9150506104bc565b506097546106d2906001600160a01b03163330846112b6565b7f1340cffb2f43e28f5ee027198f01ccd57479f881c921c44340aaed345d274ede338a8a8a8a8a8a8a8a8a6040516107139a99989796959493929190611ba7565b60405180910390a1505050505050505050565b61072e611321565b610738828261137b565b5050565b610744611321565b61074e6000611427565b565b610758611321565b61076181611440565b50565b6001600160a01b0382166000908152609b602090815260408083208484528252808320805482518185028101850190935280835260609492939192909184015b8282101561080857838290600052602060002090600502016040518060a001604052908160008201548152602001600182015481526020016002820154815260200160038201548152602001600482015481525050815260200190600101906107a4565b50505050905092915050565b60655433906001600160a01b031681146108825760405162461bcd60e51b815260206004820152602960248201527f4f776e61626c6532537465703a2063616c6c6572206973206e6f7420746865206044820152683732bb9037bbb732b960b91b606482015260840161038f565b61076181611427565b8115806108a557506000828152609a602052604090205415155b6108e35760405162461bcd60e51b815260206004820152600f60248201526e706f6f6c206e6f742065787369747360881b604482015260640161038f565b6098546040516370a0823160e01b815233600482015282916001600160a01b0316906370a082319060240160206040518083038186803b15801561092657600080fd5b505afa15801561093a573d6000803e3d6000fd5b505050506040513d601f19601f8201168201806040525081019061095e9190611af9565b10156109b85760405162461bcd60e51b8152602060048201526024808201527f7374616b653a2073667420746f6b656e2062616e6c616e6365206e6f7420656e6044820152630deeaced60e31b606482015260840161038f565b6098546040516323b872dd60e01b8152336004820152306024820152604481018390526001600160a01b03909116906323b872dd90606401602060405180830381600087803b158015610a0a57600080fd5b505af1158015610a1e573d6000803e3d6000fd5b505050506040513d601f19601f82011682018060405250810190610a429190611c4f565b610a875760405162461bcd60e51b81526020600482015260166024820152751cdd185ad94e881d1c985b9cd9995c8819985a5b195960521b604482015260640161038f565b336000908152609b60209081526040808320858452909152902082610b60578054610b16576040805160a08101825283815242602080830191825260009383018481526060840185815260808501868152875460018181018a55898952949097209551600590970290950195865592519185019190915551600284015551600383015551600490910155610bd2565b600081600081548110610b2b57610b2b611b12565b9060005260206000209060050201905082816000016000828254610b4f9190611b3e565b909155505042600190910155610bd2565b6040805160a0810182528381524260208083019182526000878152609a8252848120549484019485526060840181815260808501828152875460018181018a55898552949093209551600590930290950191825592519181019190915592516002840155516003830155516004909101555b8054839033907ff556991011e831bcfac4f406d547e5e32cdd98267efab83935230d5f8d02c44690610c0690600190611c71565b60408051918252602082018790520160405180910390a3505050565b336000908152609b602090815260408083208684529091528120805484908110610c4e57610c4e611b12565b9060005260206000209060050201905080600201548160010154610c729190611b3e565b4211610cc05760405162461bcd60e51b815260206004820152601860248201527f6974206973206e6f742074696d6520746f20756e6c6f636b0000000000000000604482015260640161038f565b8054821115610d115760405162461bcd60e51b815260206004820152601b60248201527f756e7374616b653a2062616c616e6365206e6f7420656e6f7567680000000000604482015260640161038f565b81816000016000828254610d259190611c71565b909155505060985460405163a9059cbb60e01b8152336004820152602481018490526001600160a01b039091169063a9059cbb90604401602060405180830381600087803b158015610d7657600080fd5b505af1158015610d8a573d6000803e3d6000fd5b505050506040513d601f19601f82011682018060405250810190610dae9190611c4f565b610dfa5760405162461bcd60e51b815260206004820152601860248201527f756e7374616b653a207472616e73666572206669616c65640000000000000000604482015260640161038f565b6040805184815260208101849052859133917ffbd65cfd6de1493db337385c0712095397ecbd0504df64b861cdfceb80c7b42291015b60405180910390a350505050565b600054610100900460ff1615808015610e5e5750600054600160ff909116105b80610e785750303b158015610e78575060005460ff166001145b610edb5760405162461bcd60e51b815260206004820152602e60248201527f496e697469616c697a61626c653a20636f6e747261637420697320616c72656160448201526d191e481a5b9a5d1a585b1a5e995960921b606482015260840161038f565b6000805460ff191660011790558015610efe576000805461ff0019166101001790555b6001600160a01b038416610f545760405162461bcd60e51b815260206004820181905260248201527f66696c20746f6b656e20616464726573732063616e6e6f74206265207a65726f604482015260640161038f565b6001600160a01b038316610faa5760405162461bcd60e51b815260206004820181905260248201527f53465420746f6b656e20616464726573732063616e6e6f74206265207a65726f604482015260640161038f565b610fb26114a9565b610fba6114d0565b609780546001600160a01b038087166001600160a01b0319928316179092556098805492861692909116919091179055610ff860016276a70061137b565b61100182611440565b8015611047576000805461ff0019169055604051600181527f7f26b83ff96e1f2b6a682f133852f6798a09c465da95921460cefb38474024989060200160405180910390a15b50505050565b611055611321565b6001600160a01b0383166110ab5760405162461bcd60e51b815260206004820152601960248201527f43616e6e6f742073656e6420746f206164647265737328302900000000000000604482015260640161038f565b806110f15760405162461bcd60e51b815260206004820152601660248201527543616e6e6f7420726573637565203020746f6b656e7360501b604482015260640161038f565b816111066001600160a01b0382168584611500565b826001600160a01b0316846001600160a01b03167f77023e19c7343ad491fd706c36335ca0e738340a91f29b1fd81e2673d44896c484604051610e3091815260200190565b336000908152609b60209081526040808320868452909152812080548490811061117757611177611b12565b9060005260206000209060050201905081816004015410156111db5760405162461bcd60e51b815260206004820152601c60248201527f756e636c61696d65642072657761726473206e6f7420656e6f75676800000000604482015260640161038f565b818160040160008282546111ef9190611c71565b909155505060975461120b906001600160a01b03163384611500565b6040805184815260208101849052859133917f45c072aa05b9853b5a993de7a28bc332ee01404a628cec1a23ce0f659f842ef19101610e30565b61124d611321565b606580546001600160a01b0383166001600160a01b0319909116811790915561127e6033546001600160a01b031690565b6001600160a01b03167f38d16b8cac22d99fc7c124b9cd0de2d3fa1faef420bfe791d8c362d765e2270060405160405180910390a350565b6040516001600160a01b03808516602483015283166044820152606481018290526110479085906323b872dd60e01b906084015b60408051601f198184030181529190526020810180516001600160e01b03166001600160e01b031990931692909217909152611535565b6033546001600160a01b0316331461074e5760405162461bcd60e51b815260206004820181905260248201527f4f776e61626c653a2063616c6c6572206973206e6f7420746865206f776e6572604482015260640161038f565b811580159061139657506000828152609a6020526040902054155b6113d85760405162461bcd60e51b8152602060048201526013602482015272706f6f6c20616c72656164792065786973747360681b604482015260640161038f565b6000828152609a602090815260409182902083905581518481529081018390527fc0cfd54d2de2b55f1e6e108d3ec53ff0a1abe6055401d32c61e9433b747ef9f8910160405180910390a15050565b606580546001600160a01b031916905561076181611607565b609954604080516001600160a01b03928316815291831660208301527f128323376dda10f736641415ad0e5e8a534e184b01a83f1d15af57c4627480d8910160405180910390a1609980546001600160a01b0319166001600160a01b0392909216919091179055565b600054610100900460ff1661074e5760405162461bcd60e51b815260040161038f90611c88565b600054610100900460ff166114f75760405162461bcd60e51b815260040161038f90611c88565b61074e33611427565b6040516001600160a01b03831660248201526044810182905261153090849063a9059cbb60e01b906064016112ea565b505050565b600061158a826040518060400160405280602081526020017f5361666545524332303a206c6f772d6c6576656c2063616c6c206661696c6564815250856001600160a01b03166116599092919063ffffffff16565b80519091501561153057808060200190518101906115a89190611c4f565b6115305760405162461bcd60e51b815260206004820152602a60248201527f5361666545524332303a204552433230206f7065726174696f6e20646964206e6044820152691bdd081cdd58d8d9595960b21b606482015260840161038f565b603380546001600160a01b038381166001600160a01b0319831681179093556040519116919082907f8be0079c531659141344cd1fd0a4f28419497f9722a3daafe3b4186f6b6457e090600090a35050565b60606116688484600085611670565b949350505050565b6060824710156116d15760405162461bcd60e51b815260206004820152602660248201527f416464726573733a20696e73756666696369656e742062616c616e636520666f6044820152651c8818d85b1b60d21b606482015260840161038f565b600080866001600160a01b031685876040516116ed9190611cff565b60006040518083038185875af1925050503d806000811461172a576040519150601f19603f3d011682016040523d82523d6000602084013e61172f565b606091505b50915091506117408783838761174b565b979650505050505050565b606083156117b75782516117b0576001600160a01b0385163b6117b05760405162461bcd60e51b815260206004820152601d60248201527f416464726573733a2063616c6c20746f206e6f6e2d636f6e7472616374000000604482015260640161038f565b5081611668565b61166883838151156117cc5781518083602001fd5b8060405162461bcd60e51b815260040161038f9190611d1b565b6001600160a01b038116811461076157600080fd5b60008060006060848603121561181057600080fd5b833561181b816117e6565b95602085013595506040909401359392505050565b60008083601f84011261184257600080fd5b50813567ffffffffffffffff81111561185a57600080fd5b6020830191508360208260051b850101111561187557600080fd5b9250929050565b600080600080600080600080600060a08a8c03121561189a57600080fd5b893567ffffffffffffffff808211156118b257600080fd5b6118be8d838e01611830565b909b50995060208c01359150808211156118d757600080fd5b6118e38d838e01611830565b909950975060408c01359150808211156118fc57600080fd5b6119088d838e01611830565b909750955060608c013591508082111561192157600080fd5b5061192e8c828d01611830565b9a9d999c50979a9699959894979660800135949350505050565b6000806040838503121561195b57600080fd5b50508035926020909101359150565b60006020828403121561197c57600080fd5b8135611987816117e6565b9392505050565b600080604083850312156119a157600080fd5b82356119ac816117e6565b946020939093013593505050565b602080825282518282018190526000919060409081850190868401855b82811015611a1b5781518051855286810151878601528581015186860152606080820151908601526080908101519085015260a090930192908501906001016119d7565b5091979650505050505050565b600060208284031215611a3a57600080fd5b5035919050565b600080600060608486031215611a5657600080fd5b505081359360208301359350604090920135919050565b600080600060608486031215611a8257600080fd5b8335611a8d816117e6565b92506020840135611a9d816117e6565b91506040840135611aad816117e6565b809150509250925092565b600080600060608486031215611acd57600080fd5b8335611ad8816117e6565b92506020840135611ae8816117e6565b929592945050506040919091013590565b600060208284031215611b0b57600080fd5b5051919050565b634e487b7160e01b600052603260045260246000fd5b634e487b7160e01b600052601160045260246000fd5b60008219821115611b5157611b51611b28565b500190565b6000600019821415611b6a57611b6a611b28565b5060010190565b81835260006001600160fb1b03831115611b8a57600080fd5b8260051b8083602087013760009401602001938452509192915050565b6001600160a01b038b8116825260c060208084018290529083018b90526000918c9160e08501845b8e811015611bf6578435611be2816117e6565b841682529382019390820190600101611bcf565b508581036040870152611c0a818d8f611b71565b93505050508281036060840152611c2281888a611b71565b90508281036080840152611c37818688611b71565b9150508260a08301529b9a5050505050505050505050565b600060208284031215611c6157600080fd5b8151801515811461198757600080fd5b600082821015611c8357611c83611b28565b500390565b6020808252602b908201527f496e697469616c697a61626c653a20636f6e7472616374206973206e6f74206960408201526a6e697469616c697a696e6760a81b606082015260800190565b60005b83811015611cee578181015183820152602001611cd6565b838111156110475750506000910152565b60008251611d11818460208701611cd3565b9190910192915050565b6020815260008251806020840152611d3a816040850160208701611cd3565b601f01601f1916919091016040019291505056fea2646970667358221220c3ed832587dfc5c31815e23cab7f1a5cea4b0c66f7668f25efd35fbd7e47c40564736f6c63430008090033",
  "devdoc": {
    "kind": "dev",
    "methods": {
      "acceptOwnership()": {
        "details": "The new owner accepts the ownership transfer."
      },
      "owner()": {
        "details": "Returns the address of the current owner."
      },
      "pendingOwner()": {
        "details": "Returns the address of the pending owner."
      },
      "renounceOwnership()": {
        "details": "Leaves the contract without owner. It will not be possible to call `onlyOwner` functions anymore. Can only be called by the current owner. NOTE: Renouncing ownership will leave the contract without an owner, thereby removing any functionality that is only available to the owner."
      },
      "transferOwnership(address)": {
        "details": "Starts the ownership transfer of the contract to a new account. Replaces the pending transfer if there is one. Can only be called by the current owner."
      }
    },
    "version": 1
  },
  "userdoc": {
    "kind": "user",
    "methods": {},
    "version": 1
  },
  "storageLayout": {
    "storage": [
      {
        "astId": 244,
        "contract": "contracts/Reward.sol:Reward",
        "label": "_initialized",
        "offset": 0,
        "slot": "0",
        "type": "t_uint8"
      },
      {
        "astId": 247,
        "contract": "contracts/Reward.sol:Reward",
        "label": "_initializing",
        "offset": 1,
        "slot": "0",
        "type": "t_bool"
      },
      {
        "astId": 731,
        "contract": "contracts/Reward.sol:Reward",
        "label": "__gap",
        "offset": 0,
        "slot": "1",
        "type": "t_array(t_uint256)50_storage"
      },
      {
        "astId": 116,
        "contract": "contracts/Reward.sol:Reward",
        "label": "_owner",
        "offset": 0,
        "slot": "51",
        "type": "t_address"
      },
      {
        "astId": 236,
        "contract": "contracts/Reward.sol:Reward",
        "label": "__gap",
        "offset": 0,
        "slot": "52",
        "type": "t_array(t_uint256)49_storage"
      },
      {
        "astId": 25,
        "contract": "contracts/Reward.sol:Reward",
        "label": "_pendingOwner",
        "offset": 0,
        "slot": "101",
        "type": "t_address"
      },
      {
        "astId": 104,
        "contract": "contracts/Reward.sol:Reward",
        "label": "__gap",
        "offset": 0,
        "slot": "102",
        "type": "t_array(t_uint256)49_storage"
      },
      {
        "astId": 1482,
        "contract": "contracts/Reward.sol:Reward",
        "label": "filToken",
        "offset": 0,
        "slot": "151",
        "type": "t_contract(IERC20)810"
      },
      {
        "astId": 1485,
        "contract": "contracts/Reward.sol:Reward",
        "label": "sftToken",
        "offset": 0,
        "slot": "152",
        "type": "t_contract(ISFTToken)2235"
      },
      {
        "astId": 1487,
        "contract": "contracts/Reward.sol:Reward",
        "label": "distributor",
        "offset": 0,
        "slot": "153",
        "type": "t_address"
      },
      {
        "astId": 1491,
        "contract": "contracts/Reward.sol:Reward",
        "label": "pools",
        "offset": 0,
        "slot": "154",
        "type": "t_mapping(t_uint256,t_uint256)"
      },
      {
        "astId": 1499,
        "contract": "contracts/Reward.sol:Reward",
        "label": "userInfo",
        "offset": 0,
        "slot": "155",
        "type": "t_mapping(t_address,t_mapping(t_uint256,t_array(t_struct(LockInfo)1479_storage)dyn_storage))"
      }
    ],
    "types": {
      "t_address": {
        "encoding": "inplace",
        "label": "address",
        "numberOfBytes": "20"
      },
      "t_array(t_struct(LockInfo)1479_storage)dyn_storage": {
        "base": "t_struct(LockInfo)1479_storage",
        "encoding": "dynamic_array",
        "label": "struct Reward.LockInfo[]",
        "numberOfBytes": "32"
      },
      "t_array(t_uint256)49_storage": {
        "base": "t_uint256",
        "encoding": "inplace",
        "label": "uint256[49]",
        "numberOfBytes": "1568"
      },
      "t_array(t_uint256)50_storage": {
        "base": "t_uint256",
        "encoding": "inplace",
        "label": "uint256[50]",
        "numberOfBytes": "1600"
      },
      "t_bool": {
        "encoding": "inplace",
        "label": "bool",
        "numberOfBytes": "1"
      },
      "t_contract(IERC20)810": {
        "encoding": "inplace",
        "label": "contract IERC20",
        "numberOfBytes": "20"
      },
      "t_contract(ISFTToken)2235": {
        "encoding": "inplace",
        "label": "contract ISFTToken",
        "numberOfBytes": "20"
      },
      "t_mapping(t_address,t_mapping(t_uint256,t_array(t_struct(LockInfo)1479_storage)dyn_storage))": {
        "encoding": "mapping",
        "key": "t_address",
        "label": "mapping(address => mapping(uint256 => struct Reward.LockInfo[]))",
        "numberOfBytes": "32",
        "value": "t_mapping(t_uint256,t_array(t_struct(LockInfo)1479_storage)dyn_storage)"
      },
      "t_mapping(t_uint256,t_array(t_struct(LockInfo)1479_storage)dyn_storage)": {
        "encoding": "mapping",
        "key": "t_uint256",
        "label": "mapping(uint256 => struct Reward.LockInfo[])",
        "numberOfBytes": "32",
        "value": "t_array(t_struct(LockInfo)1479_storage)dyn_storage"
      },
      "t_mapping(t_uint256,t_uint256)": {
        "encoding": "mapping",
        "key": "t_uint256",
        "label": "mapping(uint256 => uint256)",
        "numberOfBytes": "32",
        "value": "t_uint256"
      },
      "t_struct(LockInfo)1479_storage": {
        "encoding": "inplace",
        "label": "struct Reward.LockInfo",
        "members": [
          {
            "astId": 1470,
            "contract": "contracts/Reward.sol:Reward",
            "label": "amount",
            "offset": 0,
            "slot": "0",
            "type": "t_uint256"
          },
          {
            "astId": 1472,
            "contract": "contracts/Reward.sol:Reward",
            "label": "stakeAt",
            "offset": 0,
            "slot": "1",
            "type": "t_uint256"
          },
          {
            "astId": 1474,
            "contract": "contracts/Reward.sol:Reward",
            "label": "lockPeriod",
            "offset": 0,
            "slot": "2",
            "type": "t_uint256"
          },
          {
            "astId": 1476,
            "contract": "contracts/Reward.sol:Reward",
            "label": "totalRewards",
            "offset": 0,
            "slot": "3",
            "type": "t_uint256"
          },
          {
            "astId": 1478,
            "contract": "contracts/Reward.sol:Reward",
            "label": "unclaimedRewards",
            "offset": 0,
            "slot": "4",
            "type": "t_uint256"
          }
        ],
        "numberOfBytes": "160"
      },
      "t_uint256": {
        "encoding": "inplace",
        "label": "uint256",
        "numberOfBytes": "32"
      },
      "t_uint8": {
        "encoding": "inplace",
        "label": "uint8",
        "numberOfBytes": "1"
      }
    }
  }
}